{
	"data": {
		"bytecode": {
			"linkReferences": {},
			"object": "60e06040523480156200001157600080fd5b506040516200339438038062003394833981810160405281019062000037919062000191565b82828282818173ffffffffffffffffffffffffffffffffffffffff1660808173ffffffffffffffffffffffffffffffffffffffff16815250508073ffffffffffffffffffffffffffffffffffffffff1660a08173ffffffffffffffffffffffffffffffffffffffff168152505033600160006101000a81548173ffffffffffffffffffffffffffffffffffffffff021916908373ffffffffffffffffffffffffffffffffffffffff16021790555050508173ffffffffffffffffffffffffffffffffffffffff1660c08173ffffffffffffffffffffffffffffffffffffffff1681525050505050505050620001ed565b600080fd5b600073ffffffffffffffffffffffffffffffffffffffff82169050919050565b600062000159826200012c565b9050919050565b6200016b816200014c565b81146200017757600080fd5b50565b6000815190506200018b8162000160565b92915050565b600080600060608486031215620001ad57620001ac62000127565b5b6000620001bd868287016200017a565b9350506020620001d0868287016200017a565b9250506040620001e3868287016200017a565b9150509250925092565b60805160a05160c0516130f96200029b60003960008181610492015281816105770152818161070f01528181610a5201528181610b8501528181610d4301528181611336015281816113bb01526115a10152600081816102ce015281816103d701528181610632015281816108c101528181610ca6015281816113f7015261150601526000818161022801528181610ba901528181610f000152818161113601526111d601526130f96000f3fe6080604052600436106100865760003560e01c80638d3ea489116100595780638d3ea4891461014c578063c530cbbe14610168578063c6328a4614610184578063da25b725146101af578063dd12d68b146101da57610086565b8063180f6cc21461008b5780632b524c97146100c8578063529dca321461010557806384acd1bb14610121575b600080fd5b34801561009757600080fd5b506100b260048036038101906100ad91906116ac565b610203565b6040516100bf91906116f4565b60405180910390f35b3480156100d457600080fd5b506100ef60048036038101906100ea9190611749565b610223565b6040516100fc919061178f565b60405180910390f35b61011f600480360381019061011a91906119d6565b61036e565b005b34801561012d57600080fd5b506101366108bf565b6040516101439190611b08565b60405180910390f35b61016660048036038101906101619190611b8d565b6108e3565b005b610182600480360381019061017d9190611c08565b6109f4565b005b34801561019057600080fd5b50610199610b83565b6040516101a69190611c90565b60405180910390f35b3480156101bb57600080fd5b506101c4610ba7565b6040516101d19190611ccc565b60405180910390f35b3480156101e657600080fd5b5061020160048036038101906101fc9190611ce7565b610bcb565b005b60006020528060005260406000206000915054906101000a900460ff1681565b6000807f000000000000000000000000000000000000000000000000000000000000000073ffffffffffffffffffffffffffffffffffffffff1663c23ee3c38460006203d0906040518463ffffffff1660e01b815260040161028793929190611d71565b6040805180830381865afa1580156102a3573d6000803e3d6000fd5b505050506040513d601f19601f820116820180604052508101906102c79190611dbd565b50809150507f000000000000000000000000000000000000000000000000000000000000000073ffffffffffffffffffffffffffffffffffffffff16631a90a2196040518163ffffffff1660e01b8152600401602060405180830381865afa158015610337573d6000803e3d6000fd5b505050506040513d601f19601f8201168201806040525081019061035b9190611dfd565b816103669190611e59565b915050919050565b6000845167ffffffffffffffff81111561038b5761038a6117c5565b5b6040519080825280602002602001820160405280156103c457816020015b6103b16115e4565b8152602001906001900390816103a95790505b50905060005b85518110156108a95760007f000000000000000000000000000000000000000000000000000000000000000073ffffffffffffffffffffffffffffffffffffffff1663a9e1189388848151811061042457610423611e8d565b5b60200260200101516040518263ffffffff1660e01b81526004016104489190611f3b565b600060405180830381865afa158015610465573d6000803e3d6000fd5b505050506040513d6000823e3d601f19601f8201168201806040525081019061048e9190612335565b90507f000000000000000000000000000000000000000000000000000000000000000073ffffffffffffffffffffffffffffffffffffffff1663ad66a5f182606001516040518263ffffffff1660e01b81526004016104ed919061237e565b602060405180830381865afa15801561050a573d6000803e3d6000fd5b505050506040513d601f19601f8201168201806040525081019061052e9190612399565b816080015114610573576040517f08c379a000000000000000000000000000000000000000000000000000000000815260040161056a90612423565b60405180910390fd5b60007f000000000000000000000000000000000000000000000000000000000000000073ffffffffffffffffffffffffffffffffffffffff1663ea63738d8360e001516040518263ffffffff1660e01b81526004016105d29190611f3b565b600060405180830381865afa1580156105ef573d6000803e3d6000fd5b505050506040513d6000823e3d601f19601f820116820180604052508101906106189190612529565b905061062330610c7f565b81608001511480156106ce57507f000000000000000000000000000000000000000000000000000000000000000073ffffffffffffffffffffffffffffffffffffffff16639a8a05926040518163ffffffff1660e01b8152600401602060405180830381865afa15801561069b573d6000803e3d6000fd5b505050506040513d601f19601f820116820180604052508101906106bf9190612572565b61ffff168160a0015161ffff16145b61070d576040517f08c379a000000000000000000000000000000000000000000000000000000000815260040161070490612611565b60405180910390fd5b7f000000000000000000000000000000000000000000000000000000000000000073ffffffffffffffffffffffffffffffffffffffff1663c3f511c189858151811061075c5761075b611e8d565b5b60200260200101516040518263ffffffff1660e01b81526004016107809190611f3b565b6000604051808303816000875af115801561079f573d6000803e3d6000fd5b505050506040513d6000823e3d601f19601f820116820180604052508101906107c89190612631565b5060006107dd82606001518360400151610ca2565b905060006107ea82610df4565b905060008360200151905060088260ff1611156108285760088261080e919061267a565b600a61081a91906127e2565b81610825919061282d565b90505b6040518060a0016040528085604001518152602001856060015161ffff1681526020018473ffffffffffffffffffffffffffffffffffffffff168152602001828152602001856020015181525087878151811061088857610887611e8d565b5b60200260200101819052505050505050806108a29061286f565b90506103ca565b506108b78682868686610efe565b505050505050565b7f000000000000000000000000000000000000000000000000000000000000000081565b60006108ee86610223565b9050803414610932576040517f08c379a000000000000000000000000000000000000000000000000000000000815260040161092990612929565b60405180910390fd5b8173ffffffffffffffffffffffffffffffffffffffff166323b872dd3330866040518463ffffffff1660e01b815260040161096f93929190612958565b6020604051808303816000875af115801561098e573d6000803e3d6000fd5b505050506040513d601f19601f820116820180604052508101906109b291906129bb565b506000846040516020016109c691906129e8565b60405160208183030381529060405290506109ea87878360006203d090888a6110ad565b5050505050505050565b60006109ff85610223565b90508181610a0d9190611e59565b3414610a4e576040517f08c379a0000000000000000000000000000000000000000000000000000000008152600401610a4590612a75565b60405180910390fd5b60007f000000000000000000000000000000000000000000000000000000000000000073ffffffffffffffffffffffffffffffffffffffff1663ad5c46486040518163ffffffff1660e01b8152600401602060405180830381865afa158015610abb573d6000803e3d6000fd5b505050506040513d601f19601f82011682018060405250810190610adf9190612ad3565b90508073ffffffffffffffffffffffffffffffffffffffff1663d0e30db0846040518263ffffffff1660e01b81526004016000604051808303818588803b158015610b2957600080fd5b505af1158015610b3d573d6000803e3d6000fd5b5050505050600084604051602001610b5591906129e8565b6040516020818303038152906040529050610b7987878360006203d090878a6110ad565b5050505050505050565b7f000000000000000000000000000000000000000000000000000000000000000081565b7f000000000000000000000000000000000000000000000000000000000000000081565b600160009054906101000a900473ffffffffffffffffffffffffffffffffffffffff1673ffffffffffffffffffffffffffffffffffffffff163373ffffffffffffffffffffffffffffffffffffffff1614610c5b576040517f08c379a0000000000000000000000000000000000000000000000000000000008152600401610c5290612b72565b60405180910390fd5b80600260008461ffff1661ffff168152602001908152602001600020819055505050565b60008173ffffffffffffffffffffffffffffffffffffffff1660001b9050919050565b60007f000000000000000000000000000000000000000000000000000000000000000073ffffffffffffffffffffffffffffffffffffffff16639a8a05926040518163ffffffff1660e01b8152600401602060405180830381865afa158015610d0f573d6000803e3d6000fd5b505050506040513d601f19601f82011682018060405250810190610d339190612572565b61ffff168361ffff1614610de2577f000000000000000000000000000000000000000000000000000000000000000073ffffffffffffffffffffffffffffffffffffffff16631ff1e28684846040518363ffffffff1660e01b8152600401610d9c929190612ba1565b602060405180830381865afa158015610db9573d6000803e3d6000fd5b505050506040513d601f19601f82011682018060405250810190610ddd9190612bdf565b610dec565b610deb8261128a565b5b905092915050565b6000808273ffffffffffffffffffffffffffffffffffffffff166040516024016040516020818303038152906040527f313ce567000000000000000000000000000000000000000000000000000000007bffffffffffffffffffffffffffffffffffffffffffffffffffffffff19166020820180517bffffffffffffffffffffffffffffffffffffffffffffffffffffffff8381831617835250505050604051610e9e9190612c48565b600060405180830381855afa9150503d8060008114610ed9576040519150601f19603f3d011682016040523d82523d6000602084013e610ede565b606091505b5091505080806020019051810190610ef69190612c5f565b915050919050565b7f000000000000000000000000000000000000000000000000000000000000000073ffffffffffffffffffffffffffffffffffffffff163373ffffffffffffffffffffffffffffffffffffffff1614610f8c576040517f08c379a0000000000000000000000000000000000000000000000000000000008152600401610f8390612cfe565b60405180910390fd5b6001845114610fd0576040517f08c379a0000000000000000000000000000000000000000000000000000000008152600401610fc790612d6a565b60405180910390fd5b600085806020019051810190610fe69190612dc8565b905084600081518110610ffc57610ffb611e8d565b5b60200260200101516040015173ffffffffffffffffffffffffffffffffffffffff1663a9059cbb828760008151811061103857611037611e8d565b5b6020026020010151606001516040518363ffffffff1660e01b8152600401611061929190612df5565b6020604051808303816000875af1158015611080573d6000803e3d6000fd5b505050506040513d601f19601f820116820180604052508101906110a491906129bb565b50505050505050565b600080600167ffffffffffffffff8111156110cb576110ca6117c5565b5b60405190808252806020026020018201604052801561110457816020015b6110f1611630565b8152602001906001900390816110e95790505b50905061111384848b8b6112e2565b8160008151811061112757611126611e8d565b5b602002602001018190525060007f000000000000000000000000000000000000000000000000000000000000000073ffffffffffffffffffffffffffffffffffffffff1663c23ee3c38b89896040518463ffffffff1660e01b815260040161119193929190612e1e565b6040805180830381865afa1580156111ad573d6000803e3d6000fd5b505050506040513d601f19601f820116820180604052508101906111d19190611dbd565b5090507f000000000000000000000000000000000000000000000000000000000000000073ffffffffffffffffffffffffffffffffffffffff1663329a2be7828c8c8c8c8c896040518863ffffffff1660e01b815260040161123896959493929190612f73565b60206040518083038185885af1158015611256573d6000803e3d6000fd5b50505050506040513d601f19601f8201168201806040525081019061127b9190612fe2565b92505050979650505050505050565b60008060a08360001c901c146112d757816040517f33b960d00000000000000000000000000000000000000000000000000000000081526004016112ce919061300f565b60405180910390fd5b8160001c9050919050565b6112ea611630565b6113068585858560405180602001604052806000815250611310565b9050949350505050565b611318611630565b8573ffffffffffffffffffffffffffffffffffffffff1663095ea7b37f0000000000000000000000000000000000000000000000000000000000000000876040518363ffffffff1660e01b8152600401611373929190612df5565b6020604051808303816000875af1158015611392573d6000803e3d6000fd5b505050506040513d601f19601f820116820180604052508101906113b691906129bb565b5060007f000000000000000000000000000000000000000000000000000000000000000073ffffffffffffffffffffffffffffffffffffffff1663c5a5ebda7f000000000000000000000000000000000000000000000000000000000000000073ffffffffffffffffffffffffffffffffffffffff16631a90a2196040518163ffffffff1660e01b8152600401602060405180830381865afa158015611460573d6000803e3d6000fd5b505050506040513d601f19601f820116820180604052508101906114849190611dfd565b8989896114908a610c7f565b60008a6040518863ffffffff1660e01b81526004016114b49695949392919061305b565b60206040518083038185885af11580156114d2573d6000803e3d6000fd5b50505050506040513d601f19601f820116820180604052508101906114f79190612fe2565b905060405180606001604052807f000000000000000000000000000000000000000000000000000000000000000073ffffffffffffffffffffffffffffffffffffffff16639a8a05926040518163ffffffff1660e01b8152600401602060405180830381865afa15801561156f573d6000803e3d6000fd5b505050506040513d601f19601f820116820180604052508101906115939190612572565b61ffff1681526020016115c57f0000000000000000000000000000000000000000000000000000000000000000610c7f565b81526020018267ffffffffffffffff1681525091505095945050505050565b6040518060a0016040528060008019168152602001600061ffff168152602001600073ffffffffffffffffffffffffffffffffffffffff16815260200160008152602001600081525090565b6040518060600160405280600061ffff16815260200160008019168152602001600067ffffffffffffffff1681525090565b6000604051905090565b600080fd5b600080fd5b6000819050919050565b61168981611676565b811461169457600080fd5b50565b6000813590506116a681611680565b92915050565b6000602082840312156116c2576116c161166c565b5b60006116d084828501611697565b91505092915050565b60008115159050919050565b6116ee816116d9565b82525050565b600060208201905061170960008301846116e5565b92915050565b600061ffff82169050919050565b6117268161170f565b811461173157600080fd5b50565b6000813590506117438161171d565b92915050565b60006020828403121561175f5761175e61166c565b5b600061176d84828501611734565b91505092915050565b6000819050919050565b61178981611776565b82525050565b60006020820190506117a46000830184611780565b92915050565b600080fd5b600080fd5b6000601f19601f8301169050919050565b7f4e487b7100000000000000000000000000000000000000000000000000000000600052604160045260246000fd5b6117fd826117b4565b810181811067ffffffffffffffff8211171561181c5761181b6117c5565b5b80604052505050565b600061182f611662565b905061183b82826117f4565b919050565b600067ffffffffffffffff82111561185b5761185a6117c5565b5b611864826117b4565b9050602081019050919050565b82818337600083830152505050565b600061189361188e84611840565b611825565b9050828152602081018484840111156118af576118ae6117af565b5b6118ba848285611871565b509392505050565b600082601f8301126118d7576118d66117aa565b5b81356118e7848260208601611880565b91505092915050565b600067ffffffffffffffff82111561190b5761190a6117c5565b5b602082029050602081019050919050565b600080fd5b600061193461192f846118f0565b611825565b905080838252602082019050602084028301858111156119575761195661191c565b5b835b8181101561199e57803567ffffffffffffffff81111561197c5761197b6117aa565b5b80860161198989826118c2565b85526020850194505050602081019050611959565b5050509392505050565b600082601f8301126119bd576119bc6117aa565b5b81356119cd848260208601611921565b91505092915050565b600080600080600060a086880312156119f2576119f161166c565b5b600086013567ffffffffffffffff811115611a1057611a0f611671565b5b611a1c888289016118c2565b955050602086013567ffffffffffffffff811115611a3d57611a3c611671565b5b611a49888289016119a8565b9450506040611a5a88828901611697565b9350506060611a6b88828901611734565b9250506080611a7c88828901611697565b9150509295509295909350565b600073ffffffffffffffffffffffffffffffffffffffff82169050919050565b6000819050919050565b6000611ace611ac9611ac484611a89565b611aa9565b611a89565b9050919050565b6000611ae082611ab3565b9050919050565b6000611af282611ad5565b9050919050565b611b0281611ae7565b82525050565b6000602082019050611b1d6000830184611af9565b92915050565b6000611b2e82611a89565b9050919050565b611b3e81611b23565b8114611b4957600080fd5b50565b600081359050611b5b81611b35565b92915050565b611b6a81611776565b8114611b7557600080fd5b50565b600081359050611b8781611b61565b92915050565b600080600080600060a08688031215611ba957611ba861166c565b5b6000611bb788828901611734565b9550506020611bc888828901611b4c565b9450506040611bd988828901611b4c565b9350506060611bea88828901611b78565b9250506080611bfb88828901611b4c565b9150509295509295909350565b60008060008060808587031215611c2257611c2161166c565b5b6000611c3087828801611734565b9450506020611c4187828801611b4c565b9350506040611c5287828801611b4c565b9250506060611c6387828801611b78565b91505092959194509250565b6000611c7a82611ad5565b9050919050565b611c8a81611c6f565b82525050565b6000602082019050611ca56000830184611c81565b92915050565b6000611cb682611ad5565b9050919050565b611cc681611cab565b82525050565b6000602082019050611ce16000830184611cbd565b92915050565b60008060408385031215611cfe57611cfd61166c565b5b6000611d0c85828601611734565b9250506020611d1d85828601611697565b9150509250929050565b611d308161170f565b82525050565b6000819050919050565b6000611d5b611d56611d5184611d36565b611aa9565b611776565b9050919050565b611d6b81611d40565b82525050565b6000606082019050611d866000830186611d27565b611d936020830185611d62565b611da06040830184611780565b949350505050565b600081519050611db781611b61565b92915050565b60008060408385031215611dd457611dd361166c565b5b6000611de285828601611da8565b9250506020611df385828601611da8565b9150509250929050565b600060208284031215611e1357611e1261166c565b5b6000611e2184828501611da8565b91505092915050565b7f4e487b7100000000000000000000000000000000000000000000000000000000600052601160045260246000fd5b6000611e6482611776565b9150611e6f83611776565b9250828201905080821115611e8757611e86611e2a565b5b92915050565b7f4e487b7100000000000000000000000000000000000000000000000000000000600052603260045260246000fd5b600081519050919050565b600082825260208201905092915050565b60005b83811015611ef6578082015181840152602081019050611edb565b60008484015250505050565b6000611f0d82611ebc565b611f178185611ec7565b9350611f27818560208601611ed8565b611f30816117b4565b840191505092915050565b60006020820190508181036000830152611f558184611f02565b905092915050565b600080fd5b600080fd5b600060ff82169050919050565b611f7d81611f67565b8114611f8857600080fd5b50565b600081519050611f9a81611f74565b92915050565b600063ffffffff82169050919050565b611fb981611fa0565b8114611fc457600080fd5b50565b600081519050611fd681611fb0565b92915050565b600081519050611feb8161171d565b92915050565b60008151905061200081611680565b92915050565b600067ffffffffffffffff82169050919050565b61202381612006565b811461202e57600080fd5b50565b6000815190506120408161201a565b92915050565b600061205961205484611840565b611825565b905082815260208101848484011115612075576120746117af565b5b612080848285611ed8565b509392505050565b600082601f83011261209d5761209c6117aa565b5b81516120ad848260208601612046565b91505092915050565b600067ffffffffffffffff8211156120d1576120d06117c5565b5b602082029050602081019050919050565b6000608082840312156120f8576120f7611f5d565b5b6121026080611825565b9050600061211284828501611ff1565b600083015250602061212684828501611ff1565b602083015250604061213a84828501611f8b565b604083015250606061214e84828501611f8b565b60608301525092915050565b600061216d612168846120b6565b611825565b905080838252602082019050608084028301858111156121905761218f61191c565b5b835b818110156121b957806121a588826120e2565b845260208401935050608081019050612192565b5050509392505050565b600082601f8301126121d8576121d76117aa565b5b81516121e884826020860161215a565b91505092915050565b6000610160828403121561220857612207611f5d565b5b612213610160611825565b9050600061222384828501611f8b565b600083015250602061223784828501611fc7565b602083015250604061224b84828501611fc7565b604083015250606061225f84828501611fdc565b606083015250608061227384828501611ff1565b60808301525060a061228784828501612031565b60a08301525060c061229b84828501611f8b565b60c08301525060e082015167ffffffffffffffff8111156122bf576122be611f62565b5b6122cb84828501612088565b60e0830152506101006122e084828501611fc7565b6101008301525061012082015167ffffffffffffffff81111561230657612305611f62565b5b612312848285016121c3565b6101208301525061014061232884828501611ff1565b6101408301525092915050565b60006020828403121561234b5761234a61166c565b5b600082015167ffffffffffffffff81111561236957612368611671565b5b612375848285016121f1565b91505092915050565b60006020820190506123936000830184611d27565b92915050565b6000602082840312156123af576123ae61166c565b5b60006123bd84828501611ff1565b91505092915050565b600082825260208201905092915050565b7f4e6f74206120546f6b656e204272696467652056414100000000000000000000600082015250565b600061240d6016836123c6565b9150612418826123d7565b602082019050919050565b6000602082019050818103600083015261243c81612400565b9050919050565b6000610100828403121561245a57612459611f5d565b5b612465610100611825565b9050600061247584828501611f8b565b600083015250602061248984828501611da8565b602083015250604061249d84828501611ff1565b60408301525060606124b184828501611fdc565b60608301525060806124c584828501611ff1565b60808301525060a06124d984828501611fdc565b60a08301525060c06124ed84828501611ff1565b60c08301525060e082015167ffffffffffffffff81111561251157612510611f62565b5b61251d84828501612088565b60e08301525092915050565b60006020828403121561253f5761253e61166c565b5b600082015167ffffffffffffffff81111561255d5761255c611671565b5b61256984828501612443565b91505092915050565b6000602082840312156125885761258761166c565b5b600061259684828501611fdc565b91505092915050565b7f546f6b656e20776173206e6f742073656e7420746f207468697320616464726560008201527f7373000000000000000000000000000000000000000000000000000000000000602082015250565b60006125fb6022836123c6565b91506126068261259f565b604082019050919050565b6000602082019050818103600083015261262a816125ee565b9050919050565b6000602082840312156126475761264661166c565b5b600082015167ffffffffffffffff81111561266557612664611671565b5b61267184828501612088565b91505092915050565b600061268582611f67565b915061269083611f67565b9250828203905060ff8111156126a9576126a8611e2a565b5b92915050565b60008160011c9050919050565b6000808291508390505b6001851115612706578086048111156126e2576126e1611e2a565b5b60018516156126f15780820291505b80810290506126ff856126af565b94506126c6565b94509492505050565b60008261271f57600190506127db565b8161272d57600090506127db565b8160018114612743576002811461274d5761277c565b60019150506127db565b60ff84111561275f5761275e611e2a565b5b8360020a91508482111561277657612775611e2a565b5b506127db565b5060208310610133831016604e8410600b84101617156127b15782820a9050838111156127ac576127ab611e2a565b5b6127db565b6127be84848460016126bc565b925090508184048111156127d5576127d4611e2a565b5b81810290505b9392505050565b60006127ed82611776565b91506127f883611f67565b92506128257fffffffffffffffffffffffffffffffffffffffffffffffffffffffffffffffff848461270f565b905092915050565b600061283882611776565b915061284383611776565b925082820261285181611776565b9150828204841483151761286857612867611e2a565b5b5092915050565b600061287a82611776565b91507fffffffffffffffffffffffffffffffffffffffffffffffffffffffffffffffff82036128ac576128ab611e2a565b5b600182019050919050565b7f6d73672e76616c7565206d7573742062652071756f746543726f73734368616960008201527f6e4465706f73697428746172676574436861696e290000000000000000000000602082015250565b60006129136035836123c6565b915061291e826128b7565b604082019050919050565b6000602082019050818103600083015261294281612906565b9050919050565b61295281611b23565b82525050565b600060608201905061296d6000830186612949565b61297a6020830185612949565b6129876040830184611780565b949350505050565b612998816116d9565b81146129a357600080fd5b50565b6000815190506129b58161298f565b92915050565b6000602082840312156129d1576129d061166c565b5b60006129df848285016129a6565b91505092915050565b60006020820190506129fd6000830184612949565b92915050565b7f6d73672e76616c7565206d7573742062652071756f746543726f73734368616960008201527f6e4465706f73697428746172676574436861696e29202b20616d6f756e740000602082015250565b6000612a5f603e836123c6565b9150612a6a82612a03565b604082019050919050565b60006020820190508181036000830152612a8e81612a52565b9050919050565b6000612aa082611b23565b9050919050565b612ab081612a95565b8114612abb57600080fd5b50565b600081519050612acd81612aa7565b92915050565b600060208284031215612ae957612ae861166c565b5b6000612af784828501612abe565b91505092915050565b7f4e6f7420616c6c6f77656420746f20736574207265676973746572656420736560008201527f6e64657200000000000000000000000000000000000000000000000000000000602082015250565b6000612b5c6024836123c6565b9150612b6782612b00565b604082019050919050565b60006020820190508181036000830152612b8b81612b4f565b9050919050565b612b9b81611676565b82525050565b6000604082019050612bb66000830185611d27565b612bc36020830184612b92565b9392505050565b600081519050612bd981611b35565b92915050565b600060208284031215612bf557612bf461166c565b5b6000612c0384828501612bca565b91505092915050565b600081905092915050565b6000612c2282611ebc565b612c2c8185612c0c565b9350612c3c818560208601611ed8565b80840191505092915050565b6000612c548284612c17565b915081905092915050565b600060208284031215612c7557612c7461166c565b5b6000612c8384828501611f8b565b91505092915050565b7f4d73672e73656e646572206973206e6f7420576f726d686f6c652052656c617960008201527f6572000000000000000000000000000000000000000000000000000000000000602082015250565b6000612ce86022836123c6565b9150612cf382612c8c565b604082019050919050565b60006020820190508181036000830152612d1781612cdb565b9050919050565b7f4578706563746564203120746f6b656e207472616e7366657273000000000000600082015250565b6000612d54601a836123c6565b9150612d5f82612d1e565b602082019050919050565b60006020820190508181036000830152612d8381612d47565b9050919050565b6000612d9582611a89565b9050919050565b612da581612d8a565b8114612db057600080fd5b50565b600081519050612dc281612d9c565b92915050565b600060208284031215612dde57612ddd61166c565b5b6000612dec84828501612db3565b91505092915050565b6000604082019050612e0a6000830185612949565b612e176020830184611780565b9392505050565b6000606082019050612e336000830186611d27565b612e406020830185611780565b612e4d6040830184611780565b949350505050565b600081519050919050565b600082825260208201905092915050565b6000819050602082019050919050565b612e8a8161170f565b82525050565b612e9981611676565b82525050565b612ea881612006565b82525050565b606082016000820151612ec46000850182612e81565b506020820151612ed76020850182612e90565b506040820151612eea6040850182612e9f565b50505050565b6000612efc8383612eae565b60608301905092915050565b6000602082019050919050565b6000612f2082612e55565b612f2a8185612e60565b9350612f3583612e71565b8060005b83811015612f66578151612f4d8882612ef0565b9750612f5883612f08565b925050600181019050612f39565b5085935050505092915050565b600060c082019050612f886000830189611d27565b612f956020830188612949565b8181036040830152612fa78187611f02565b9050612fb66060830186611780565b612fc36080830185611780565b81810360a0830152612fd58184612f15565b9050979650505050505050565b600060208284031215612ff857612ff761166c565b5b600061300684828501612031565b91505092915050565b60006020820190506130246000830184612b92565b92915050565b600061304561304061303b84611d36565b611aa9565b611fa0565b9050919050565b6130558161302a565b82525050565b600060c0820190506130706000830189612949565b61307d6020830188611780565b61308a6040830187611d27565b6130976060830186612b92565b6130a4608083018561304c565b81810360a08301526130b68184611f02565b905097965050505050505056fea2646970667358221220ceb68f841381c59b33a617d08107362455312cfe11397238d4eaba21ca1c57c864736f6c63430008120033",
			"opcodes": "PUSH1 0xE0 PUSH1 0x40 MSTORE CALLVALUE DUP1 ISZERO PUSH3 0x11 JUMPI PUSH1 0x0 DUP1 REVERT JUMPDEST POP PUSH1 0x40 MLOAD PUSH3 0x3394 CODESIZE SUB DUP1 PUSH3 0x3394 DUP4 CODECOPY DUP2 DUP2 ADD PUSH1 0x40 MSTORE DUP2 ADD SWAP1 PUSH3 0x37 SWAP2 SWAP1 PUSH3 0x191 JUMP JUMPDEST DUP3 DUP3 DUP3 DUP3 DUP2 DUP2 PUSH20 0xFFFFFFFFFFFFFFFFFFFFFFFFFFFFFFFFFFFFFFFF AND PUSH1 0x80 DUP2 PUSH20 0xFFFFFFFFFFFFFFFFFFFFFFFFFFFFFFFFFFFFFFFF AND DUP2 MSTORE POP POP DUP1 PUSH20 0xFFFFFFFFFFFFFFFFFFFFFFFFFFFFFFFFFFFFFFFF AND PUSH1 0xA0 DUP2 PUSH20 0xFFFFFFFFFFFFFFFFFFFFFFFFFFFFFFFFFFFFFFFF AND DUP2 MSTORE POP POP CALLER PUSH1 0x1 PUSH1 0x0 PUSH2 0x100 EXP DUP2 SLOAD DUP2 PUSH20 0xFFFFFFFFFFFFFFFFFFFFFFFFFFFFFFFFFFFFFFFF MUL NOT AND SWAP1 DUP4 PUSH20 0xFFFFFFFFFFFFFFFFFFFFFFFFFFFFFFFFFFFFFFFF AND MUL OR SWAP1 SSTORE POP POP POP DUP2 PUSH20 0xFFFFFFFFFFFFFFFFFFFFFFFFFFFFFFFFFFFFFFFF AND PUSH1 0xC0 DUP2 PUSH20 0xFFFFFFFFFFFFFFFFFFFFFFFFFFFFFFFFFFFFFFFF AND DUP2 MSTORE POP POP POP POP POP POP POP POP PUSH3 0x1ED JUMP JUMPDEST PUSH1 0x0 DUP1 REVERT JUMPDEST PUSH1 0x0 PUSH20 0xFFFFFFFFFFFFFFFFFFFFFFFFFFFFFFFFFFFFFFFF DUP3 AND SWAP1 POP SWAP2 SWAP1 POP JUMP JUMPDEST PUSH1 0x0 PUSH3 0x159 DUP3 PUSH3 0x12C JUMP JUMPDEST SWAP1 POP SWAP2 SWAP1 POP JUMP JUMPDEST PUSH3 0x16B DUP2 PUSH3 0x14C JUMP JUMPDEST DUP2 EQ PUSH3 0x177 JUMPI PUSH1 0x0 DUP1 REVERT JUMPDEST POP JUMP JUMPDEST PUSH1 0x0 DUP2 MLOAD SWAP1 POP PUSH3 0x18B DUP2 PUSH3 0x160 JUMP JUMPDEST SWAP3 SWAP2 POP POP JUMP JUMPDEST PUSH1 0x0 DUP1 PUSH1 0x0 PUSH1 0x60 DUP5 DUP7 SUB SLT ISZERO PUSH3 0x1AD JUMPI PUSH3 0x1AC PUSH3 0x127 JUMP JUMPDEST JUMPDEST PUSH1 0x0 PUSH3 0x1BD DUP7 DUP3 DUP8 ADD PUSH3 0x17A JUMP JUMPDEST SWAP4 POP POP PUSH1 0x20 PUSH3 0x1D0 DUP7 DUP3 DUP8 ADD PUSH3 0x17A JUMP JUMPDEST SWAP3 POP POP PUSH1 0x40 PUSH3 0x1E3 DUP7 DUP3 DUP8 ADD PUSH3 0x17A JUMP JUMPDEST SWAP2 POP POP SWAP3 POP SWAP3 POP SWAP3 JUMP JUMPDEST PUSH1 0x80 MLOAD PUSH1 0xA0 MLOAD PUSH1 0xC0 MLOAD PUSH2 0x30F9 PUSH3 0x29B PUSH1 0x0 CODECOPY PUSH1 0x0 DUP2 DUP2 PUSH2 0x492 ADD MSTORE DUP2 DUP2 PUSH2 0x577 ADD MSTORE DUP2 DUP2 PUSH2 0x70F ADD MSTORE DUP2 DUP2 PUSH2 0xA52 ADD MSTORE DUP2 DUP2 PUSH2 0xB85 ADD MSTORE DUP2 DUP2 PUSH2 0xD43 ADD MSTORE DUP2 DUP2 PUSH2 0x1336 ADD MSTORE DUP2 DUP2 PUSH2 0x13BB ADD MSTORE PUSH2 0x15A1 ADD MSTORE PUSH1 0x0 DUP2 DUP2 PUSH2 0x2CE ADD MSTORE DUP2 DUP2 PUSH2 0x3D7 ADD MSTORE DUP2 DUP2 PUSH2 0x632 ADD MSTORE DUP2 DUP2 PUSH2 0x8C1 ADD MSTORE DUP2 DUP2 PUSH2 0xCA6 ADD MSTORE DUP2 DUP2 PUSH2 0x13F7 ADD MSTORE PUSH2 0x1506 ADD MSTORE PUSH1 0x0 DUP2 DUP2 PUSH2 0x228 ADD MSTORE DUP2 DUP2 PUSH2 0xBA9 ADD MSTORE DUP2 DUP2 PUSH2 0xF00 ADD MSTORE DUP2 DUP2 PUSH2 0x1136 ADD MSTORE PUSH2 0x11D6 ADD MSTORE PUSH2 0x30F9 PUSH1 0x0 RETURN INVALID PUSH1 0x80 PUSH1 0x40 MSTORE PUSH1 0x4 CALLDATASIZE LT PUSH2 0x86 JUMPI PUSH1 0x0 CALLDATALOAD PUSH1 0xE0 SHR DUP1 PUSH4 0x8D3EA489 GT PUSH2 0x59 JUMPI DUP1 PUSH4 0x8D3EA489 EQ PUSH2 0x14C JUMPI DUP1 PUSH4 0xC530CBBE EQ PUSH2 0x168 JUMPI DUP1 PUSH4 0xC6328A46 EQ PUSH2 0x184 JUMPI DUP1 PUSH4 0xDA25B725 EQ PUSH2 0x1AF JUMPI DUP1 PUSH4 0xDD12D68B EQ PUSH2 0x1DA JUMPI PUSH2 0x86 JUMP JUMPDEST DUP1 PUSH4 0x180F6CC2 EQ PUSH2 0x8B JUMPI DUP1 PUSH4 0x2B524C97 EQ PUSH2 0xC8 JUMPI DUP1 PUSH4 0x529DCA32 EQ PUSH2 0x105 JUMPI DUP1 PUSH4 0x84ACD1BB EQ PUSH2 0x121 JUMPI JUMPDEST PUSH1 0x0 DUP1 REVERT JUMPDEST CALLVALUE DUP1 ISZERO PUSH2 0x97 JUMPI PUSH1 0x0 DUP1 REVERT JUMPDEST POP PUSH2 0xB2 PUSH1 0x4 DUP1 CALLDATASIZE SUB DUP2 ADD SWAP1 PUSH2 0xAD SWAP2 SWAP1 PUSH2 0x16AC JUMP JUMPDEST PUSH2 0x203 JUMP JUMPDEST PUSH1 0x40 MLOAD PUSH2 0xBF SWAP2 SWAP1 PUSH2 0x16F4 JUMP JUMPDEST PUSH1 0x40 MLOAD DUP1 SWAP2 SUB SWAP1 RETURN JUMPDEST CALLVALUE DUP1 ISZERO PUSH2 0xD4 JUMPI PUSH1 0x0 DUP1 REVERT JUMPDEST POP PUSH2 0xEF PUSH1 0x4 DUP1 CALLDATASIZE SUB DUP2 ADD SWAP1 PUSH2 0xEA SWAP2 SWAP1 PUSH2 0x1749 JUMP JUMPDEST PUSH2 0x223 JUMP JUMPDEST PUSH1 0x40 MLOAD PUSH2 0xFC SWAP2 SWAP1 PUSH2 0x178F JUMP JUMPDEST PUSH1 0x40 MLOAD DUP1 SWAP2 SUB SWAP1 RETURN JUMPDEST PUSH2 0x11F PUSH1 0x4 DUP1 CALLDATASIZE SUB DUP2 ADD SWAP1 PUSH2 0x11A SWAP2 SWAP1 PUSH2 0x19D6 JUMP JUMPDEST PUSH2 0x36E JUMP JUMPDEST STOP JUMPDEST CALLVALUE DUP1 ISZERO PUSH2 0x12D JUMPI PUSH1 0x0 DUP1 REVERT JUMPDEST POP PUSH2 0x136 PUSH2 0x8BF JUMP JUMPDEST PUSH1 0x40 MLOAD PUSH2 0x143 SWAP2 SWAP1 PUSH2 0x1B08 JUMP JUMPDEST PUSH1 0x40 MLOAD DUP1 SWAP2 SUB SWAP1 RETURN JUMPDEST PUSH2 0x166 PUSH1 0x4 DUP1 CALLDATASIZE SUB DUP2 ADD SWAP1 PUSH2 0x161 SWAP2 SWAP1 PUSH2 0x1B8D JUMP JUMPDEST PUSH2 0x8E3 JUMP JUMPDEST STOP JUMPDEST PUSH2 0x182 PUSH1 0x4 DUP1 CALLDATASIZE SUB DUP2 ADD SWAP1 PUSH2 0x17D SWAP2 SWAP1 PUSH2 0x1C08 JUMP JUMPDEST PUSH2 0x9F4 JUMP JUMPDEST STOP JUMPDEST CALLVALUE DUP1 ISZERO PUSH2 0x190 JUMPI PUSH1 0x0 DUP1 REVERT JUMPDEST POP PUSH2 0x199 PUSH2 0xB83 JUMP JUMPDEST PUSH1 0x40 MLOAD PUSH2 0x1A6 SWAP2 SWAP1 PUSH2 0x1C90 JUMP JUMPDEST PUSH1 0x40 MLOAD DUP1 SWAP2 SUB SWAP1 RETURN JUMPDEST CALLVALUE DUP1 ISZERO PUSH2 0x1BB JUMPI PUSH1 0x0 DUP1 REVERT JUMPDEST POP PUSH2 0x1C4 PUSH2 0xBA7 JUMP JUMPDEST PUSH1 0x40 MLOAD PUSH2 0x1D1 SWAP2 SWAP1 PUSH2 0x1CCC JUMP JUMPDEST PUSH1 0x40 MLOAD DUP1 SWAP2 SUB SWAP1 RETURN JUMPDEST CALLVALUE DUP1 ISZERO PUSH2 0x1E6 JUMPI PUSH1 0x0 DUP1 REVERT JUMPDEST POP PUSH2 0x201 PUSH1 0x4 DUP1 CALLDATASIZE SUB DUP2 ADD SWAP1 PUSH2 0x1FC SWAP2 SWAP1 PUSH2 0x1CE7 JUMP JUMPDEST PUSH2 0xBCB JUMP JUMPDEST STOP JUMPDEST PUSH1 0x0 PUSH1 0x20 MSTORE DUP1 PUSH1 0x0 MSTORE PUSH1 0x40 PUSH1 0x0 KECCAK256 PUSH1 0x0 SWAP2 POP SLOAD SWAP1 PUSH2 0x100 EXP SWAP1 DIV PUSH1 0xFF AND DUP2 JUMP JUMPDEST PUSH1 0x0 DUP1 PUSH32 0x0 PUSH20 0xFFFFFFFFFFFFFFFFFFFFFFFFFFFFFFFFFFFFFFFF AND PUSH4 0xC23EE3C3 DUP5 PUSH1 0x0 PUSH3 0x3D090 PUSH1 0x40 MLOAD DUP5 PUSH4 0xFFFFFFFF AND PUSH1 0xE0 SHL DUP2 MSTORE PUSH1 0x4 ADD PUSH2 0x287 SWAP4 SWAP3 SWAP2 SWAP1 PUSH2 0x1D71 JUMP JUMPDEST PUSH1 0x40 DUP1 MLOAD DUP1 DUP4 SUB DUP2 DUP7 GAS STATICCALL ISZERO DUP1 ISZERO PUSH2 0x2A3 JUMPI RETURNDATASIZE PUSH1 0x0 DUP1 RETURNDATACOPY RETURNDATASIZE PUSH1 0x0 REVERT JUMPDEST POP POP POP POP PUSH1 0x40 MLOAD RETURNDATASIZE PUSH1 0x1F NOT PUSH1 0x1F DUP3 ADD AND DUP3 ADD DUP1 PUSH1 0x40 MSTORE POP DUP2 ADD SWAP1 PUSH2 0x2C7 SWAP2 SWAP1 PUSH2 0x1DBD JUMP JUMPDEST POP DUP1 SWAP2 POP POP PUSH32 0x0 PUSH20 0xFFFFFFFFFFFFFFFFFFFFFFFFFFFFFFFFFFFFFFFF AND PUSH4 0x1A90A219 PUSH1 0x40 MLOAD DUP2 PUSH4 0xFFFFFFFF AND PUSH1 0xE0 SHL DUP2 MSTORE PUSH1 0x4 ADD PUSH1 0x20 PUSH1 0x40 MLOAD DUP1 DUP4 SUB DUP2 DUP7 GAS STATICCALL ISZERO DUP1 ISZERO PUSH2 0x337 JUMPI RETURNDATASIZE PUSH1 0x0 DUP1 RETURNDATACOPY RETURNDATASIZE PUSH1 0x0 REVERT JUMPDEST POP POP POP POP PUSH1 0x40 MLOAD RETURNDATASIZE PUSH1 0x1F NOT PUSH1 0x1F DUP3 ADD AND DUP3 ADD DUP1 PUSH1 0x40 MSTORE POP DUP2 ADD SWAP1 PUSH2 0x35B SWAP2 SWAP1 PUSH2 0x1DFD JUMP JUMPDEST DUP2 PUSH2 0x366 SWAP2 SWAP1 PUSH2 0x1E59 JUMP JUMPDEST SWAP2 POP POP SWAP2 SWAP1 POP JUMP JUMPDEST PUSH1 0x0 DUP5 MLOAD PUSH8 0xFFFFFFFFFFFFFFFF DUP2 GT ISZERO PUSH2 0x38B JUMPI PUSH2 0x38A PUSH2 0x17C5 JUMP JUMPDEST JUMPDEST PUSH1 0x40 MLOAD SWAP1 DUP1 DUP3 MSTORE DUP1 PUSH1 0x20 MUL PUSH1 0x20 ADD DUP3 ADD PUSH1 0x40 MSTORE DUP1 ISZERO PUSH2 0x3C4 JUMPI DUP2 PUSH1 0x20 ADD JUMPDEST PUSH2 0x3B1 PUSH2 0x15E4 JUMP JUMPDEST DUP2 MSTORE PUSH1 0x20 ADD SWAP1 PUSH1 0x1 SWAP1 SUB SWAP1 DUP2 PUSH2 0x3A9 JUMPI SWAP1 POP JUMPDEST POP SWAP1 POP PUSH1 0x0 JUMPDEST DUP6 MLOAD DUP2 LT ISZERO PUSH2 0x8A9 JUMPI PUSH1 0x0 PUSH32 0x0 PUSH20 0xFFFFFFFFFFFFFFFFFFFFFFFFFFFFFFFFFFFFFFFF AND PUSH4 0xA9E11893 DUP9 DUP5 DUP2 MLOAD DUP2 LT PUSH2 0x424 JUMPI PUSH2 0x423 PUSH2 0x1E8D JUMP JUMPDEST JUMPDEST PUSH1 0x20 MUL PUSH1 0x20 ADD ADD MLOAD PUSH1 0x40 MLOAD DUP3 PUSH4 0xFFFFFFFF AND PUSH1 0xE0 SHL DUP2 MSTORE PUSH1 0x4 ADD PUSH2 0x448 SWAP2 SWAP1 PUSH2 0x1F3B JUMP JUMPDEST PUSH1 0x0 PUSH1 0x40 MLOAD DUP1 DUP4 SUB DUP2 DUP7 GAS STATICCALL ISZERO DUP1 ISZERO PUSH2 0x465 JUMPI RETURNDATASIZE PUSH1 0x0 DUP1 RETURNDATACOPY RETURNDATASIZE PUSH1 0x0 REVERT JUMPDEST POP POP POP POP PUSH1 0x40 MLOAD RETURNDATASIZE PUSH1 0x0 DUP3 RETURNDATACOPY RETURNDATASIZE PUSH1 0x1F NOT PUSH1 0x1F DUP3 ADD AND DUP3 ADD DUP1 PUSH1 0x40 MSTORE POP DUP2 ADD SWAP1 PUSH2 0x48E SWAP2 SWAP1 PUSH2 0x2335 JUMP JUMPDEST SWAP1 POP PUSH32 0x0 PUSH20 0xFFFFFFFFFFFFFFFFFFFFFFFFFFFFFFFFFFFFFFFF AND PUSH4 0xAD66A5F1 DUP3 PUSH1 0x60 ADD MLOAD PUSH1 0x40 MLOAD DUP3 PUSH4 0xFFFFFFFF AND PUSH1 0xE0 SHL DUP2 MSTORE PUSH1 0x4 ADD PUSH2 0x4ED SWAP2 SWAP1 PUSH2 0x237E JUMP JUMPDEST PUSH1 0x20 PUSH1 0x40 MLOAD DUP1 DUP4 SUB DUP2 DUP7 GAS STATICCALL ISZERO DUP1 ISZERO PUSH2 0x50A JUMPI RETURNDATASIZE PUSH1 0x0 DUP1 RETURNDATACOPY RETURNDATASIZE PUSH1 0x0 REVERT JUMPDEST POP POP POP POP PUSH1 0x40 MLOAD RETURNDATASIZE PUSH1 0x1F NOT PUSH1 0x1F DUP3 ADD AND DUP3 ADD DUP1 PUSH1 0x40 MSTORE POP DUP2 ADD SWAP1 PUSH2 0x52E SWAP2 SWAP1 PUSH2 0x2399 JUMP JUMPDEST DUP2 PUSH1 0x80 ADD MLOAD EQ PUSH2 0x573 JUMPI PUSH1 0x40 MLOAD PUSH32 0x8C379A000000000000000000000000000000000000000000000000000000000 DUP2 MSTORE PUSH1 0x4 ADD PUSH2 0x56A SWAP1 PUSH2 0x2423 JUMP JUMPDEST PUSH1 0x40 MLOAD DUP1 SWAP2 SUB SWAP1 REVERT JUMPDEST PUSH1 0x0 PUSH32 0x0 PUSH20 0xFFFFFFFFFFFFFFFFFFFFFFFFFFFFFFFFFFFFFFFF AND PUSH4 0xEA63738D DUP4 PUSH1 0xE0 ADD MLOAD PUSH1 0x40 MLOAD DUP3 PUSH4 0xFFFFFFFF AND PUSH1 0xE0 SHL DUP2 MSTORE PUSH1 0x4 ADD PUSH2 0x5D2 SWAP2 SWAP1 PUSH2 0x1F3B JUMP JUMPDEST PUSH1 0x0 PUSH1 0x40 MLOAD DUP1 DUP4 SUB DUP2 DUP7 GAS STATICCALL ISZERO DUP1 ISZERO PUSH2 0x5EF JUMPI RETURNDATASIZE PUSH1 0x0 DUP1 RETURNDATACOPY RETURNDATASIZE PUSH1 0x0 REVERT JUMPDEST POP POP POP POP PUSH1 0x40 MLOAD RETURNDATASIZE PUSH1 0x0 DUP3 RETURNDATACOPY RETURNDATASIZE PUSH1 0x1F NOT PUSH1 0x1F DUP3 ADD AND DUP3 ADD DUP1 PUSH1 0x40 MSTORE POP DUP2 ADD SWAP1 PUSH2 0x618 SWAP2 SWAP1 PUSH2 0x2529 JUMP JUMPDEST SWAP1 POP PUSH2 0x623 ADDRESS PUSH2 0xC7F JUMP JUMPDEST DUP2 PUSH1 0x80 ADD MLOAD EQ DUP1 ISZERO PUSH2 0x6CE JUMPI POP PUSH32 0x0 PUSH20 0xFFFFFFFFFFFFFFFFFFFFFFFFFFFFFFFFFFFFFFFF AND PUSH4 0x9A8A0592 PUSH1 0x40 MLOAD DUP2 PUSH4 0xFFFFFFFF AND PUSH1 0xE0 SHL DUP2 MSTORE PUSH1 0x4 ADD PUSH1 0x20 PUSH1 0x40 MLOAD DUP1 DUP4 SUB DUP2 DUP7 GAS STATICCALL ISZERO DUP1 ISZERO PUSH2 0x69B JUMPI RETURNDATASIZE PUSH1 0x0 DUP1 RETURNDATACOPY RETURNDATASIZE PUSH1 0x0 REVERT JUMPDEST POP POP POP POP PUSH1 0x40 MLOAD RETURNDATASIZE PUSH1 0x1F NOT PUSH1 0x1F DUP3 ADD AND DUP3 ADD DUP1 PUSH1 0x40 MSTORE POP DUP2 ADD SWAP1 PUSH2 0x6BF SWAP2 SWAP1 PUSH2 0x2572 JUMP JUMPDEST PUSH2 0xFFFF AND DUP2 PUSH1 0xA0 ADD MLOAD PUSH2 0xFFFF AND EQ JUMPDEST PUSH2 0x70D JUMPI PUSH1 0x40 MLOAD PUSH32 0x8C379A000000000000000000000000000000000000000000000000000000000 DUP2 MSTORE PUSH1 0x4 ADD PUSH2 0x704 SWAP1 PUSH2 0x2611 JUMP JUMPDEST PUSH1 0x40 MLOAD DUP1 SWAP2 SUB SWAP1 REVERT JUMPDEST PUSH32 0x0 PUSH20 0xFFFFFFFFFFFFFFFFFFFFFFFFFFFFFFFFFFFFFFFF AND PUSH4 0xC3F511C1 DUP10 DUP6 DUP2 MLOAD DUP2 LT PUSH2 0x75C JUMPI PUSH2 0x75B PUSH2 0x1E8D JUMP JUMPDEST JUMPDEST PUSH1 0x20 MUL PUSH1 0x20 ADD ADD MLOAD PUSH1 0x40 MLOAD DUP3 PUSH4 0xFFFFFFFF AND PUSH1 0xE0 SHL DUP2 MSTORE PUSH1 0x4 ADD PUSH2 0x780 SWAP2 SWAP1 PUSH2 0x1F3B JUMP JUMPDEST PUSH1 0x0 PUSH1 0x40 MLOAD DUP1 DUP4 SUB DUP2 PUSH1 0x0 DUP8 GAS CALL ISZERO DUP1 ISZERO PUSH2 0x79F JUMPI RETURNDATASIZE PUSH1 0x0 DUP1 RETURNDATACOPY RETURNDATASIZE PUSH1 0x0 REVERT JUMPDEST POP POP POP POP PUSH1 0x40 MLOAD RETURNDATASIZE PUSH1 0x0 DUP3 RETURNDATACOPY RETURNDATASIZE PUSH1 0x1F NOT PUSH1 0x1F DUP3 ADD AND DUP3 ADD DUP1 PUSH1 0x40 MSTORE POP DUP2 ADD SWAP1 PUSH2 0x7C8 SWAP2 SWAP1 PUSH2 0x2631 JUMP JUMPDEST POP PUSH1 0x0 PUSH2 0x7DD DUP3 PUSH1 0x60 ADD MLOAD DUP4 PUSH1 0x40 ADD MLOAD PUSH2 0xCA2 JUMP JUMPDEST SWAP1 POP PUSH1 0x0 PUSH2 0x7EA DUP3 PUSH2 0xDF4 JUMP JUMPDEST SWAP1 POP PUSH1 0x0 DUP4 PUSH1 0x20 ADD MLOAD SWAP1 POP PUSH1 0x8 DUP3 PUSH1 0xFF AND GT ISZERO PUSH2 0x828 JUMPI PUSH1 0x8 DUP3 PUSH2 0x80E SWAP2 SWAP1 PUSH2 0x267A JUMP JUMPDEST PUSH1 0xA PUSH2 0x81A SWAP2 SWAP1 PUSH2 0x27E2 JUMP JUMPDEST DUP2 PUSH2 0x825 SWAP2 SWAP1 PUSH2 0x282D JUMP JUMPDEST SWAP1 POP JUMPDEST PUSH1 0x40 MLOAD DUP1 PUSH1 0xA0 ADD PUSH1 0x40 MSTORE DUP1 DUP6 PUSH1 0x40 ADD MLOAD DUP2 MSTORE PUSH1 0x20 ADD DUP6 PUSH1 0x60 ADD MLOAD PUSH2 0xFFFF AND DUP2 MSTORE PUSH1 0x20 ADD DUP5 PUSH20 0xFFFFFFFFFFFFFFFFFFFFFFFFFFFFFFFFFFFFFFFF AND DUP2 MSTORE PUSH1 0x20 ADD DUP3 DUP2 MSTORE PUSH1 0x20 ADD DUP6 PUSH1 0x20 ADD MLOAD DUP2 MSTORE POP DUP8 DUP8 DUP2 MLOAD DUP2 LT PUSH2 0x888 JUMPI PUSH2 0x887 PUSH2 0x1E8D JUMP JUMPDEST JUMPDEST PUSH1 0x20 MUL PUSH1 0x20 ADD ADD DUP2 SWAP1 MSTORE POP POP POP POP POP POP DUP1 PUSH2 0x8A2 SWAP1 PUSH2 0x286F JUMP JUMPDEST SWAP1 POP PUSH2 0x3CA JUMP JUMPDEST POP PUSH2 0x8B7 DUP7 DUP3 DUP7 DUP7 DUP7 PUSH2 0xEFE JUMP JUMPDEST POP POP POP POP POP POP JUMP JUMPDEST PUSH32 0x0 DUP2 JUMP JUMPDEST PUSH1 0x0 PUSH2 0x8EE DUP7 PUSH2 0x223 JUMP JUMPDEST SWAP1 POP DUP1 CALLVALUE EQ PUSH2 0x932 JUMPI PUSH1 0x40 MLOAD PUSH32 0x8C379A000000000000000000000000000000000000000000000000000000000 DUP2 MSTORE PUSH1 0x4 ADD PUSH2 0x929 SWAP1 PUSH2 0x2929 JUMP JUMPDEST PUSH1 0x40 MLOAD DUP1 SWAP2 SUB SWAP1 REVERT JUMPDEST DUP2 PUSH20 0xFFFFFFFFFFFFFFFFFFFFFFFFFFFFFFFFFFFFFFFF AND PUSH4 0x23B872DD CALLER ADDRESS DUP7 PUSH1 0x40 MLOAD DUP5 PUSH4 0xFFFFFFFF AND PUSH1 0xE0 SHL DUP2 MSTORE PUSH1 0x4 ADD PUSH2 0x96F SWAP4 SWAP3 SWAP2 SWAP1 PUSH2 0x2958 JUMP JUMPDEST PUSH1 0x20 PUSH1 0x40 MLOAD DUP1 DUP4 SUB DUP2 PUSH1 0x0 DUP8 GAS CALL ISZERO DUP1 ISZERO PUSH2 0x98E JUMPI RETURNDATASIZE PUSH1 0x0 DUP1 RETURNDATACOPY RETURNDATASIZE PUSH1 0x0 REVERT JUMPDEST POP POP POP POP PUSH1 0x40 MLOAD RETURNDATASIZE PUSH1 0x1F NOT PUSH1 0x1F DUP3 ADD AND DUP3 ADD DUP1 PUSH1 0x40 MSTORE POP DUP2 ADD SWAP1 PUSH2 0x9B2 SWAP2 SWAP1 PUSH2 0x29BB JUMP JUMPDEST POP PUSH1 0x0 DUP5 PUSH1 0x40 MLOAD PUSH1 0x20 ADD PUSH2 0x9C6 SWAP2 SWAP1 PUSH2 0x29E8 JUMP JUMPDEST PUSH1 0x40 MLOAD PUSH1 0x20 DUP2 DUP4 SUB SUB DUP2 MSTORE SWAP1 PUSH1 0x40 MSTORE SWAP1 POP PUSH2 0x9EA DUP8 DUP8 DUP4 PUSH1 0x0 PUSH3 0x3D090 DUP9 DUP11 PUSH2 0x10AD JUMP JUMPDEST POP POP POP POP POP POP POP POP JUMP JUMPDEST PUSH1 0x0 PUSH2 0x9FF DUP6 PUSH2 0x223 JUMP JUMPDEST SWAP1 POP DUP2 DUP2 PUSH2 0xA0D SWAP2 SWAP1 PUSH2 0x1E59 JUMP JUMPDEST CALLVALUE EQ PUSH2 0xA4E JUMPI PUSH1 0x40 MLOAD PUSH32 0x8C379A000000000000000000000000000000000000000000000000000000000 DUP2 MSTORE PUSH1 0x4 ADD PUSH2 0xA45 SWAP1 PUSH2 0x2A75 JUMP JUMPDEST PUSH1 0x40 MLOAD DUP1 SWAP2 SUB SWAP1 REVERT JUMPDEST PUSH1 0x0 PUSH32 0x0 PUSH20 0xFFFFFFFFFFFFFFFFFFFFFFFFFFFFFFFFFFFFFFFF AND PUSH4 0xAD5C4648 PUSH1 0x40 MLOAD DUP2 PUSH4 0xFFFFFFFF AND PUSH1 0xE0 SHL DUP2 MSTORE PUSH1 0x4 ADD PUSH1 0x20 PUSH1 0x40 MLOAD DUP1 DUP4 SUB DUP2 DUP7 GAS STATICCALL ISZERO DUP1 ISZERO PUSH2 0xABB JUMPI RETURNDATASIZE PUSH1 0x0 DUP1 RETURNDATACOPY RETURNDATASIZE PUSH1 0x0 REVERT JUMPDEST POP POP POP POP PUSH1 0x40 MLOAD RETURNDATASIZE PUSH1 0x1F NOT PUSH1 0x1F DUP3 ADD AND DUP3 ADD DUP1 PUSH1 0x40 MSTORE POP DUP2 ADD SWAP1 PUSH2 0xADF SWAP2 SWAP1 PUSH2 0x2AD3 JUMP JUMPDEST SWAP1 POP DUP1 PUSH20 0xFFFFFFFFFFFFFFFFFFFFFFFFFFFFFFFFFFFFFFFF AND PUSH4 0xD0E30DB0 DUP5 PUSH1 0x40 MLOAD DUP3 PUSH4 0xFFFFFFFF AND PUSH1 0xE0 SHL DUP2 MSTORE PUSH1 0x4 ADD PUSH1 0x0 PUSH1 0x40 MLOAD DUP1 DUP4 SUB DUP2 DUP6 DUP9 DUP1 EXTCODESIZE ISZERO DUP1 ISZERO PUSH2 0xB29 JUMPI PUSH1 0x0 DUP1 REVERT JUMPDEST POP GAS CALL ISZERO DUP1 ISZERO PUSH2 0xB3D JUMPI RETURNDATASIZE PUSH1 0x0 DUP1 RETURNDATACOPY RETURNDATASIZE PUSH1 0x0 REVERT JUMPDEST POP POP POP POP POP PUSH1 0x0 DUP5 PUSH1 0x40 MLOAD PUSH1 0x20 ADD PUSH2 0xB55 SWAP2 SWAP1 PUSH2 0x29E8 JUMP JUMPDEST PUSH1 0x40 MLOAD PUSH1 0x20 DUP2 DUP4 SUB SUB DUP2 MSTORE SWAP1 PUSH1 0x40 MSTORE SWAP1 POP PUSH2 0xB79 DUP8 DUP8 DUP4 PUSH1 0x0 PUSH3 0x3D090 DUP8 DUP11 PUSH2 0x10AD JUMP JUMPDEST POP POP POP POP POP POP POP POP JUMP JUMPDEST PUSH32 0x0 DUP2 JUMP JUMPDEST PUSH32 0x0 DUP2 JUMP JUMPDEST PUSH1 0x1 PUSH1 0x0 SWAP1 SLOAD SWAP1 PUSH2 0x100 EXP SWAP1 DIV PUSH20 0xFFFFFFFFFFFFFFFFFFFFFFFFFFFFFFFFFFFFFFFF AND PUSH20 0xFFFFFFFFFFFFFFFFFFFFFFFFFFFFFFFFFFFFFFFF AND CALLER PUSH20 0xFFFFFFFFFFFFFFFFFFFFFFFFFFFFFFFFFFFFFFFF AND EQ PUSH2 0xC5B JUMPI PUSH1 0x40 MLOAD PUSH32 0x8C379A000000000000000000000000000000000000000000000000000000000 DUP2 MSTORE PUSH1 0x4 ADD PUSH2 0xC52 SWAP1 PUSH2 0x2B72 JUMP JUMPDEST PUSH1 0x40 MLOAD DUP1 SWAP2 SUB SWAP1 REVERT JUMPDEST DUP1 PUSH1 0x2 PUSH1 0x0 DUP5 PUSH2 0xFFFF AND PUSH2 0xFFFF AND DUP2 MSTORE PUSH1 0x20 ADD SWAP1 DUP2 MSTORE PUSH1 0x20 ADD PUSH1 0x0 KECCAK256 DUP2 SWAP1 SSTORE POP POP POP JUMP JUMPDEST PUSH1 0x0 DUP2 PUSH20 0xFFFFFFFFFFFFFFFFFFFFFFFFFFFFFFFFFFFFFFFF AND PUSH1 0x0 SHL SWAP1 POP SWAP2 SWAP1 POP JUMP JUMPDEST PUSH1 0x0 PUSH32 0x0 PUSH20 0xFFFFFFFFFFFFFFFFFFFFFFFFFFFFFFFFFFFFFFFF AND PUSH4 0x9A8A0592 PUSH1 0x40 MLOAD DUP2 PUSH4 0xFFFFFFFF AND PUSH1 0xE0 SHL DUP2 MSTORE PUSH1 0x4 ADD PUSH1 0x20 PUSH1 0x40 MLOAD DUP1 DUP4 SUB DUP2 DUP7 GAS STATICCALL ISZERO DUP1 ISZERO PUSH2 0xD0F JUMPI RETURNDATASIZE PUSH1 0x0 DUP1 RETURNDATACOPY RETURNDATASIZE PUSH1 0x0 REVERT JUMPDEST POP POP POP POP PUSH1 0x40 MLOAD RETURNDATASIZE PUSH1 0x1F NOT PUSH1 0x1F DUP3 ADD AND DUP3 ADD DUP1 PUSH1 0x40 MSTORE POP DUP2 ADD SWAP1 PUSH2 0xD33 SWAP2 SWAP1 PUSH2 0x2572 JUMP JUMPDEST PUSH2 0xFFFF AND DUP4 PUSH2 0xFFFF AND EQ PUSH2 0xDE2 JUMPI PUSH32 0x0 PUSH20 0xFFFFFFFFFFFFFFFFFFFFFFFFFFFFFFFFFFFFFFFF AND PUSH4 0x1FF1E286 DUP5 DUP5 PUSH1 0x40 MLOAD DUP4 PUSH4 0xFFFFFFFF AND PUSH1 0xE0 SHL DUP2 MSTORE PUSH1 0x4 ADD PUSH2 0xD9C SWAP3 SWAP2 SWAP1 PUSH2 0x2BA1 JUMP JUMPDEST PUSH1 0x20 PUSH1 0x40 MLOAD DUP1 DUP4 SUB DUP2 DUP7 GAS STATICCALL ISZERO DUP1 ISZERO PUSH2 0xDB9 JUMPI RETURNDATASIZE PUSH1 0x0 DUP1 RETURNDATACOPY RETURNDATASIZE PUSH1 0x0 REVERT JUMPDEST POP POP POP POP PUSH1 0x40 MLOAD RETURNDATASIZE PUSH1 0x1F NOT PUSH1 0x1F DUP3 ADD AND DUP3 ADD DUP1 PUSH1 0x40 MSTORE POP DUP2 ADD SWAP1 PUSH2 0xDDD SWAP2 SWAP1 PUSH2 0x2BDF JUMP JUMPDEST PUSH2 0xDEC JUMP JUMPDEST PUSH2 0xDEB DUP3 PUSH2 0x128A JUMP JUMPDEST JUMPDEST SWAP1 POP SWAP3 SWAP2 POP POP JUMP JUMPDEST PUSH1 0x0 DUP1 DUP3 PUSH20 0xFFFFFFFFFFFFFFFFFFFFFFFFFFFFFFFFFFFFFFFF AND PUSH1 0x40 MLOAD PUSH1 0x24 ADD PUSH1 0x40 MLOAD PUSH1 0x20 DUP2 DUP4 SUB SUB DUP2 MSTORE SWAP1 PUSH1 0x40 MSTORE PUSH32 0x313CE56700000000000000000000000000000000000000000000000000000000 PUSH28 0xFFFFFFFFFFFFFFFFFFFFFFFFFFFFFFFFFFFFFFFFFFFFFFFFFFFFFFFF NOT AND PUSH1 0x20 DUP3 ADD DUP1 MLOAD PUSH28 0xFFFFFFFFFFFFFFFFFFFFFFFFFFFFFFFFFFFFFFFFFFFFFFFFFFFFFFFF DUP4 DUP2 DUP4 AND OR DUP4 MSTORE POP POP POP POP PUSH1 0x40 MLOAD PUSH2 0xE9E SWAP2 SWAP1 PUSH2 0x2C48 JUMP JUMPDEST PUSH1 0x0 PUSH1 0x40 MLOAD DUP1 DUP4 SUB DUP2 DUP6 GAS STATICCALL SWAP2 POP POP RETURNDATASIZE DUP1 PUSH1 0x0 DUP2 EQ PUSH2 0xED9 JUMPI PUSH1 0x40 MLOAD SWAP2 POP PUSH1 0x1F NOT PUSH1 0x3F RETURNDATASIZE ADD AND DUP3 ADD PUSH1 0x40 MSTORE RETURNDATASIZE DUP3 MSTORE RETURNDATASIZE PUSH1 0x0 PUSH1 0x20 DUP5 ADD RETURNDATACOPY PUSH2 0xEDE JUMP JUMPDEST PUSH1 0x60 SWAP2 POP JUMPDEST POP SWAP2 POP POP DUP1 DUP1 PUSH1 0x20 ADD SWAP1 MLOAD DUP2 ADD SWAP1 PUSH2 0xEF6 SWAP2 SWAP1 PUSH2 0x2C5F JUMP JUMPDEST SWAP2 POP POP SWAP2 SWAP1 POP JUMP JUMPDEST PUSH32 0x0 PUSH20 0xFFFFFFFFFFFFFFFFFFFFFFFFFFFFFFFFFFFFFFFF AND CALLER PUSH20 0xFFFFFFFFFFFFFFFFFFFFFFFFFFFFFFFFFFFFFFFF AND EQ PUSH2 0xF8C JUMPI PUSH1 0x40 MLOAD PUSH32 0x8C379A000000000000000000000000000000000000000000000000000000000 DUP2 MSTORE PUSH1 0x4 ADD PUSH2 0xF83 SWAP1 PUSH2 0x2CFE JUMP JUMPDEST PUSH1 0x40 MLOAD DUP1 SWAP2 SUB SWAP1 REVERT JUMPDEST PUSH1 0x1 DUP5 MLOAD EQ PUSH2 0xFD0 JUMPI PUSH1 0x40 MLOAD PUSH32 0x8C379A000000000000000000000000000000000000000000000000000000000 DUP2 MSTORE PUSH1 0x4 ADD PUSH2 0xFC7 SWAP1 PUSH2 0x2D6A JUMP JUMPDEST PUSH1 0x40 MLOAD DUP1 SWAP2 SUB SWAP1 REVERT JUMPDEST PUSH1 0x0 DUP6 DUP1 PUSH1 0x20 ADD SWAP1 MLOAD DUP2 ADD SWAP1 PUSH2 0xFE6 SWAP2 SWAP1 PUSH2 0x2DC8 JUMP JUMPDEST SWAP1 POP DUP5 PUSH1 0x0 DUP2 MLOAD DUP2 LT PUSH2 0xFFC JUMPI PUSH2 0xFFB PUSH2 0x1E8D JUMP JUMPDEST JUMPDEST PUSH1 0x20 MUL PUSH1 0x20 ADD ADD MLOAD PUSH1 0x40 ADD MLOAD PUSH20 0xFFFFFFFFFFFFFFFFFFFFFFFFFFFFFFFFFFFFFFFF AND PUSH4 0xA9059CBB DUP3 DUP8 PUSH1 0x0 DUP2 MLOAD DUP2 LT PUSH2 0x1038 JUMPI PUSH2 0x1037 PUSH2 0x1E8D JUMP JUMPDEST JUMPDEST PUSH1 0x20 MUL PUSH1 0x20 ADD ADD MLOAD PUSH1 0x60 ADD MLOAD PUSH1 0x40 MLOAD DUP4 PUSH4 0xFFFFFFFF AND PUSH1 0xE0 SHL DUP2 MSTORE PUSH1 0x4 ADD PUSH2 0x1061 SWAP3 SWAP2 SWAP1 PUSH2 0x2DF5 JUMP JUMPDEST PUSH1 0x20 PUSH1 0x40 MLOAD DUP1 DUP4 SUB DUP2 PUSH1 0x0 DUP8 GAS CALL ISZERO DUP1 ISZERO PUSH2 0x1080 JUMPI RETURNDATASIZE PUSH1 0x0 DUP1 RETURNDATACOPY RETURNDATASIZE PUSH1 0x0 REVERT JUMPDEST POP POP POP POP PUSH1 0x40 MLOAD RETURNDATASIZE PUSH1 0x1F NOT PUSH1 0x1F DUP3 ADD AND DUP3 ADD DUP1 PUSH1 0x40 MSTORE POP DUP2 ADD SWAP1 PUSH2 0x10A4 SWAP2 SWAP1 PUSH2 0x29BB JUMP JUMPDEST POP POP POP POP POP POP POP JUMP JUMPDEST PUSH1 0x0 DUP1 PUSH1 0x1 PUSH8 0xFFFFFFFFFFFFFFFF DUP2 GT ISZERO PUSH2 0x10CB JUMPI PUSH2 0x10CA PUSH2 0x17C5 JUMP JUMPDEST JUMPDEST PUSH1 0x40 MLOAD SWAP1 DUP1 DUP3 MSTORE DUP1 PUSH1 0x20 MUL PUSH1 0x20 ADD DUP3 ADD PUSH1 0x40 MSTORE DUP1 ISZERO PUSH2 0x1104 JUMPI DUP2 PUSH1 0x20 ADD JUMPDEST PUSH2 0x10F1 PUSH2 0x1630 JUMP JUMPDEST DUP2 MSTORE PUSH1 0x20 ADD SWAP1 PUSH1 0x1 SWAP1 SUB SWAP1 DUP2 PUSH2 0x10E9 JUMPI SWAP1 POP JUMPDEST POP SWAP1 POP PUSH2 0x1113 DUP5 DUP5 DUP12 DUP12 PUSH2 0x12E2 JUMP JUMPDEST DUP2 PUSH1 0x0 DUP2 MLOAD DUP2 LT PUSH2 0x1127 JUMPI PUSH2 0x1126 PUSH2 0x1E8D JUMP JUMPDEST JUMPDEST PUSH1 0x20 MUL PUSH1 0x20 ADD ADD DUP2 SWAP1 MSTORE POP PUSH1 0x0 PUSH32 0x0 PUSH20 0xFFFFFFFFFFFFFFFFFFFFFFFFFFFFFFFFFFFFFFFF AND PUSH4 0xC23EE3C3 DUP12 DUP10 DUP10 PUSH1 0x40 MLOAD DUP5 PUSH4 0xFFFFFFFF AND PUSH1 0xE0 SHL DUP2 MSTORE PUSH1 0x4 ADD PUSH2 0x1191 SWAP4 SWAP3 SWAP2 SWAP1 PUSH2 0x2E1E JUMP JUMPDEST PUSH1 0x40 DUP1 MLOAD DUP1 DUP4 SUB DUP2 DUP7 GAS STATICCALL ISZERO DUP1 ISZERO PUSH2 0x11AD JUMPI RETURNDATASIZE PUSH1 0x0 DUP1 RETURNDATACOPY RETURNDATASIZE PUSH1 0x0 REVERT JUMPDEST POP POP POP POP PUSH1 0x40 MLOAD RETURNDATASIZE PUSH1 0x1F NOT PUSH1 0x1F DUP3 ADD AND DUP3 ADD DUP1 PUSH1 0x40 MSTORE POP DUP2 ADD SWAP1 PUSH2 0x11D1 SWAP2 SWAP1 PUSH2 0x1DBD JUMP JUMPDEST POP SWAP1 POP PUSH32 0x0 PUSH20 0xFFFFFFFFFFFFFFFFFFFFFFFFFFFFFFFFFFFFFFFF AND PUSH4 0x329A2BE7 DUP3 DUP13 DUP13 DUP13 DUP13 DUP13 DUP10 PUSH1 0x40 MLOAD DUP9 PUSH4 0xFFFFFFFF AND PUSH1 0xE0 SHL DUP2 MSTORE PUSH1 0x4 ADD PUSH2 0x1238 SWAP7 SWAP6 SWAP5 SWAP4 SWAP3 SWAP2 SWAP1 PUSH2 0x2F73 JUMP JUMPDEST PUSH1 0x20 PUSH1 0x40 MLOAD DUP1 DUP4 SUB DUP2 DUP6 DUP9 GAS CALL ISZERO DUP1 ISZERO PUSH2 0x1256 JUMPI RETURNDATASIZE PUSH1 0x0 DUP1 RETURNDATACOPY RETURNDATASIZE PUSH1 0x0 REVERT JUMPDEST POP POP POP POP POP PUSH1 0x40 MLOAD RETURNDATASIZE PUSH1 0x1F NOT PUSH1 0x1F DUP3 ADD AND DUP3 ADD DUP1 PUSH1 0x40 MSTORE POP DUP2 ADD SWAP1 PUSH2 0x127B SWAP2 SWAP1 PUSH2 0x2FE2 JUMP JUMPDEST SWAP3 POP POP POP SWAP8 SWAP7 POP POP POP POP POP POP POP JUMP JUMPDEST PUSH1 0x0 DUP1 PUSH1 0xA0 DUP4 PUSH1 0x0 SHR SWAP1 SHR EQ PUSH2 0x12D7 JUMPI DUP2 PUSH1 0x40 MLOAD PUSH32 0x33B960D000000000000000000000000000000000000000000000000000000000 DUP2 MSTORE PUSH1 0x4 ADD PUSH2 0x12CE SWAP2 SWAP1 PUSH2 0x300F JUMP JUMPDEST PUSH1 0x40 MLOAD DUP1 SWAP2 SUB SWAP1 REVERT JUMPDEST DUP2 PUSH1 0x0 SHR SWAP1 POP SWAP2 SWAP1 POP JUMP JUMPDEST PUSH2 0x12EA PUSH2 0x1630 JUMP JUMPDEST PUSH2 0x1306 DUP6 DUP6 DUP6 DUP6 PUSH1 0x40 MLOAD DUP1 PUSH1 0x20 ADD PUSH1 0x40 MSTORE DUP1 PUSH1 0x0 DUP2 MSTORE POP PUSH2 0x1310 JUMP JUMPDEST SWAP1 POP SWAP5 SWAP4 POP POP POP POP JUMP JUMPDEST PUSH2 0x1318 PUSH2 0x1630 JUMP JUMPDEST DUP6 PUSH20 0xFFFFFFFFFFFFFFFFFFFFFFFFFFFFFFFFFFFFFFFF AND PUSH4 0x95EA7B3 PUSH32 0x0 DUP8 PUSH1 0x40 MLOAD DUP4 PUSH4 0xFFFFFFFF AND PUSH1 0xE0 SHL DUP2 MSTORE PUSH1 0x4 ADD PUSH2 0x1373 SWAP3 SWAP2 SWAP1 PUSH2 0x2DF5 JUMP JUMPDEST PUSH1 0x20 PUSH1 0x40 MLOAD DUP1 DUP4 SUB DUP2 PUSH1 0x0 DUP8 GAS CALL ISZERO DUP1 ISZERO PUSH2 0x1392 JUMPI RETURNDATASIZE PUSH1 0x0 DUP1 RETURNDATACOPY RETURNDATASIZE PUSH1 0x0 REVERT JUMPDEST POP POP POP POP PUSH1 0x40 MLOAD RETURNDATASIZE PUSH1 0x1F NOT PUSH1 0x1F DUP3 ADD AND DUP3 ADD DUP1 PUSH1 0x40 MSTORE POP DUP2 ADD SWAP1 PUSH2 0x13B6 SWAP2 SWAP1 PUSH2 0x29BB JUMP JUMPDEST POP PUSH1 0x0 PUSH32 0x0 PUSH20 0xFFFFFFFFFFFFFFFFFFFFFFFFFFFFFFFFFFFFFFFF AND PUSH4 0xC5A5EBDA PUSH32 0x0 PUSH20 0xFFFFFFFFFFFFFFFFFFFFFFFFFFFFFFFFFFFFFFFF AND PUSH4 0x1A90A219 PUSH1 0x40 MLOAD DUP2 PUSH4 0xFFFFFFFF AND PUSH1 0xE0 SHL DUP2 MSTORE PUSH1 0x4 ADD PUSH1 0x20 PUSH1 0x40 MLOAD DUP1 DUP4 SUB DUP2 DUP7 GAS STATICCALL ISZERO DUP1 ISZERO PUSH2 0x1460 JUMPI RETURNDATASIZE PUSH1 0x0 DUP1 RETURNDATACOPY RETURNDATASIZE PUSH1 0x0 REVERT JUMPDEST POP POP POP POP PUSH1 0x40 MLOAD RETURNDATASIZE PUSH1 0x1F NOT PUSH1 0x1F DUP3 ADD AND DUP3 ADD DUP1 PUSH1 0x40 MSTORE POP DUP2 ADD SWAP1 PUSH2 0x1484 SWAP2 SWAP1 PUSH2 0x1DFD JUMP JUMPDEST DUP10 DUP10 DUP10 PUSH2 0x1490 DUP11 PUSH2 0xC7F JUMP JUMPDEST PUSH1 0x0 DUP11 PUSH1 0x40 MLOAD DUP9 PUSH4 0xFFFFFFFF AND PUSH1 0xE0 SHL DUP2 MSTORE PUSH1 0x4 ADD PUSH2 0x14B4 SWAP7 SWAP6 SWAP5 SWAP4 SWAP3 SWAP2 SWAP1 PUSH2 0x305B JUMP JUMPDEST PUSH1 0x20 PUSH1 0x40 MLOAD DUP1 DUP4 SUB DUP2 DUP6 DUP9 GAS CALL ISZERO DUP1 ISZERO PUSH2 0x14D2 JUMPI RETURNDATASIZE PUSH1 0x0 DUP1 RETURNDATACOPY RETURNDATASIZE PUSH1 0x0 REVERT JUMPDEST POP POP POP POP POP PUSH1 0x40 MLOAD RETURNDATASIZE PUSH1 0x1F NOT PUSH1 0x1F DUP3 ADD AND DUP3 ADD DUP1 PUSH1 0x40 MSTORE POP DUP2 ADD SWAP1 PUSH2 0x14F7 SWAP2 SWAP1 PUSH2 0x2FE2 JUMP JUMPDEST SWAP1 POP PUSH1 0x40 MLOAD DUP1 PUSH1 0x60 ADD PUSH1 0x40 MSTORE DUP1 PUSH32 0x0 PUSH20 0xFFFFFFFFFFFFFFFFFFFFFFFFFFFFFFFFFFFFFFFF AND PUSH4 0x9A8A0592 PUSH1 0x40 MLOAD DUP2 PUSH4 0xFFFFFFFF AND PUSH1 0xE0 SHL DUP2 MSTORE PUSH1 0x4 ADD PUSH1 0x20 PUSH1 0x40 MLOAD DUP1 DUP4 SUB DUP2 DUP7 GAS STATICCALL ISZERO DUP1 ISZERO PUSH2 0x156F JUMPI RETURNDATASIZE PUSH1 0x0 DUP1 RETURNDATACOPY RETURNDATASIZE PUSH1 0x0 REVERT JUMPDEST POP POP POP POP PUSH1 0x40 MLOAD RETURNDATASIZE PUSH1 0x1F NOT PUSH1 0x1F DUP3 ADD AND DUP3 ADD DUP1 PUSH1 0x40 MSTORE POP DUP2 ADD SWAP1 PUSH2 0x1593 SWAP2 SWAP1 PUSH2 0x2572 JUMP JUMPDEST PUSH2 0xFFFF AND DUP2 MSTORE PUSH1 0x20 ADD PUSH2 0x15C5 PUSH32 0x0 PUSH2 0xC7F JUMP JUMPDEST DUP2 MSTORE PUSH1 0x20 ADD DUP3 PUSH8 0xFFFFFFFFFFFFFFFF AND DUP2 MSTORE POP SWAP2 POP POP SWAP6 SWAP5 POP POP POP POP POP JUMP JUMPDEST PUSH1 0x40 MLOAD DUP1 PUSH1 0xA0 ADD PUSH1 0x40 MSTORE DUP1 PUSH1 0x0 DUP1 NOT AND DUP2 MSTORE PUSH1 0x20 ADD PUSH1 0x0 PUSH2 0xFFFF AND DUP2 MSTORE PUSH1 0x20 ADD PUSH1 0x0 PUSH20 0xFFFFFFFFFFFFFFFFFFFFFFFFFFFFFFFFFFFFFFFF AND DUP2 MSTORE PUSH1 0x20 ADD PUSH1 0x0 DUP2 MSTORE PUSH1 0x20 ADD PUSH1 0x0 DUP2 MSTORE POP SWAP1 JUMP JUMPDEST PUSH1 0x40 MLOAD DUP1 PUSH1 0x60 ADD PUSH1 0x40 MSTORE DUP1 PUSH1 0x0 PUSH2 0xFFFF AND DUP2 MSTORE PUSH1 0x20 ADD PUSH1 0x0 DUP1 NOT AND DUP2 MSTORE PUSH1 0x20 ADD PUSH1 0x0 PUSH8 0xFFFFFFFFFFFFFFFF AND DUP2 MSTORE POP SWAP1 JUMP JUMPDEST PUSH1 0x0 PUSH1 0x40 MLOAD SWAP1 POP SWAP1 JUMP JUMPDEST PUSH1 0x0 DUP1 REVERT JUMPDEST PUSH1 0x0 DUP1 REVERT JUMPDEST PUSH1 0x0 DUP2 SWAP1 POP SWAP2 SWAP1 POP JUMP JUMPDEST PUSH2 0x1689 DUP2 PUSH2 0x1676 JUMP JUMPDEST DUP2 EQ PUSH2 0x1694 JUMPI PUSH1 0x0 DUP1 REVERT JUMPDEST POP JUMP JUMPDEST PUSH1 0x0 DUP2 CALLDATALOAD SWAP1 POP PUSH2 0x16A6 DUP2 PUSH2 0x1680 JUMP JUMPDEST SWAP3 SWAP2 POP POP JUMP JUMPDEST PUSH1 0x0 PUSH1 0x20 DUP3 DUP5 SUB SLT ISZERO PUSH2 0x16C2 JUMPI PUSH2 0x16C1 PUSH2 0x166C JUMP JUMPDEST JUMPDEST PUSH1 0x0 PUSH2 0x16D0 DUP5 DUP3 DUP6 ADD PUSH2 0x1697 JUMP JUMPDEST SWAP2 POP POP SWAP3 SWAP2 POP POP JUMP JUMPDEST PUSH1 0x0 DUP2 ISZERO ISZERO SWAP1 POP SWAP2 SWAP1 POP JUMP JUMPDEST PUSH2 0x16EE DUP2 PUSH2 0x16D9 JUMP JUMPDEST DUP3 MSTORE POP POP JUMP JUMPDEST PUSH1 0x0 PUSH1 0x20 DUP3 ADD SWAP1 POP PUSH2 0x1709 PUSH1 0x0 DUP4 ADD DUP5 PUSH2 0x16E5 JUMP JUMPDEST SWAP3 SWAP2 POP POP JUMP JUMPDEST PUSH1 0x0 PUSH2 0xFFFF DUP3 AND SWAP1 POP SWAP2 SWAP1 POP JUMP JUMPDEST PUSH2 0x1726 DUP2 PUSH2 0x170F JUMP JUMPDEST DUP2 EQ PUSH2 0x1731 JUMPI PUSH1 0x0 DUP1 REVERT JUMPDEST POP JUMP JUMPDEST PUSH1 0x0 DUP2 CALLDATALOAD SWAP1 POP PUSH2 0x1743 DUP2 PUSH2 0x171D JUMP JUMPDEST SWAP3 SWAP2 POP POP JUMP JUMPDEST PUSH1 0x0 PUSH1 0x20 DUP3 DUP5 SUB SLT ISZERO PUSH2 0x175F JUMPI PUSH2 0x175E PUSH2 0x166C JUMP JUMPDEST JUMPDEST PUSH1 0x0 PUSH2 0x176D DUP5 DUP3 DUP6 ADD PUSH2 0x1734 JUMP JUMPDEST SWAP2 POP POP SWAP3 SWAP2 POP POP JUMP JUMPDEST PUSH1 0x0 DUP2 SWAP1 POP SWAP2 SWAP1 POP JUMP JUMPDEST PUSH2 0x1789 DUP2 PUSH2 0x1776 JUMP JUMPDEST DUP3 MSTORE POP POP JUMP JUMPDEST PUSH1 0x0 PUSH1 0x20 DUP3 ADD SWAP1 POP PUSH2 0x17A4 PUSH1 0x0 DUP4 ADD DUP5 PUSH2 0x1780 JUMP JUMPDEST SWAP3 SWAP2 POP POP JUMP JUMPDEST PUSH1 0x0 DUP1 REVERT JUMPDEST PUSH1 0x0 DUP1 REVERT JUMPDEST PUSH1 0x0 PUSH1 0x1F NOT PUSH1 0x1F DUP4 ADD AND SWAP1 POP SWAP2 SWAP1 POP JUMP JUMPDEST PUSH32 0x4E487B7100000000000000000000000000000000000000000000000000000000 PUSH1 0x0 MSTORE PUSH1 0x41 PUSH1 0x4 MSTORE PUSH1 0x24 PUSH1 0x0 REVERT JUMPDEST PUSH2 0x17FD DUP3 PUSH2 0x17B4 JUMP JUMPDEST DUP2 ADD DUP2 DUP2 LT PUSH8 0xFFFFFFFFFFFFFFFF DUP3 GT OR ISZERO PUSH2 0x181C JUMPI PUSH2 0x181B PUSH2 0x17C5 JUMP JUMPDEST JUMPDEST DUP1 PUSH1 0x40 MSTORE POP POP POP JUMP JUMPDEST PUSH1 0x0 PUSH2 0x182F PUSH2 0x1662 JUMP JUMPDEST SWAP1 POP PUSH2 0x183B DUP3 DUP3 PUSH2 0x17F4 JUMP JUMPDEST SWAP2 SWAP1 POP JUMP JUMPDEST PUSH1 0x0 PUSH8 0xFFFFFFFFFFFFFFFF DUP3 GT ISZERO PUSH2 0x185B JUMPI PUSH2 0x185A PUSH2 0x17C5 JUMP JUMPDEST JUMPDEST PUSH2 0x1864 DUP3 PUSH2 0x17B4 JUMP JUMPDEST SWAP1 POP PUSH1 0x20 DUP2 ADD SWAP1 POP SWAP2 SWAP1 POP JUMP JUMPDEST DUP3 DUP2 DUP4 CALLDATACOPY PUSH1 0x0 DUP4 DUP4 ADD MSTORE POP POP POP JUMP JUMPDEST PUSH1 0x0 PUSH2 0x1893 PUSH2 0x188E DUP5 PUSH2 0x1840 JUMP JUMPDEST PUSH2 0x1825 JUMP JUMPDEST SWAP1 POP DUP3 DUP2 MSTORE PUSH1 0x20 DUP2 ADD DUP5 DUP5 DUP5 ADD GT ISZERO PUSH2 0x18AF JUMPI PUSH2 0x18AE PUSH2 0x17AF JUMP JUMPDEST JUMPDEST PUSH2 0x18BA DUP5 DUP3 DUP6 PUSH2 0x1871 JUMP JUMPDEST POP SWAP4 SWAP3 POP POP POP JUMP JUMPDEST PUSH1 0x0 DUP3 PUSH1 0x1F DUP4 ADD SLT PUSH2 0x18D7 JUMPI PUSH2 0x18D6 PUSH2 0x17AA JUMP JUMPDEST JUMPDEST DUP2 CALLDATALOAD PUSH2 0x18E7 DUP5 DUP3 PUSH1 0x20 DUP7 ADD PUSH2 0x1880 JUMP JUMPDEST SWAP2 POP POP SWAP3 SWAP2 POP POP JUMP JUMPDEST PUSH1 0x0 PUSH8 0xFFFFFFFFFFFFFFFF DUP3 GT ISZERO PUSH2 0x190B JUMPI PUSH2 0x190A PUSH2 0x17C5 JUMP JUMPDEST JUMPDEST PUSH1 0x20 DUP3 MUL SWAP1 POP PUSH1 0x20 DUP2 ADD SWAP1 POP SWAP2 SWAP1 POP JUMP JUMPDEST PUSH1 0x0 DUP1 REVERT JUMPDEST PUSH1 0x0 PUSH2 0x1934 PUSH2 0x192F DUP5 PUSH2 0x18F0 JUMP JUMPDEST PUSH2 0x1825 JUMP JUMPDEST SWAP1 POP DUP1 DUP4 DUP3 MSTORE PUSH1 0x20 DUP3 ADD SWAP1 POP PUSH1 0x20 DUP5 MUL DUP4 ADD DUP6 DUP2 GT ISZERO PUSH2 0x1957 JUMPI PUSH2 0x1956 PUSH2 0x191C JUMP JUMPDEST JUMPDEST DUP4 JUMPDEST DUP2 DUP2 LT ISZERO PUSH2 0x199E JUMPI DUP1 CALLDATALOAD PUSH8 0xFFFFFFFFFFFFFFFF DUP2 GT ISZERO PUSH2 0x197C JUMPI PUSH2 0x197B PUSH2 0x17AA JUMP JUMPDEST JUMPDEST DUP1 DUP7 ADD PUSH2 0x1989 DUP10 DUP3 PUSH2 0x18C2 JUMP JUMPDEST DUP6 MSTORE PUSH1 0x20 DUP6 ADD SWAP5 POP POP POP PUSH1 0x20 DUP2 ADD SWAP1 POP PUSH2 0x1959 JUMP JUMPDEST POP POP POP SWAP4 SWAP3 POP POP POP JUMP JUMPDEST PUSH1 0x0 DUP3 PUSH1 0x1F DUP4 ADD SLT PUSH2 0x19BD JUMPI PUSH2 0x19BC PUSH2 0x17AA JUMP JUMPDEST JUMPDEST DUP2 CALLDATALOAD PUSH2 0x19CD DUP5 DUP3 PUSH1 0x20 DUP7 ADD PUSH2 0x1921 JUMP JUMPDEST SWAP2 POP POP SWAP3 SWAP2 POP POP JUMP JUMPDEST PUSH1 0x0 DUP1 PUSH1 0x0 DUP1 PUSH1 0x0 PUSH1 0xA0 DUP7 DUP9 SUB SLT ISZERO PUSH2 0x19F2 JUMPI PUSH2 0x19F1 PUSH2 0x166C JUMP JUMPDEST JUMPDEST PUSH1 0x0 DUP7 ADD CALLDATALOAD PUSH8 0xFFFFFFFFFFFFFFFF DUP2 GT ISZERO PUSH2 0x1A10 JUMPI PUSH2 0x1A0F PUSH2 0x1671 JUMP JUMPDEST JUMPDEST PUSH2 0x1A1C DUP9 DUP3 DUP10 ADD PUSH2 0x18C2 JUMP JUMPDEST SWAP6 POP POP PUSH1 0x20 DUP7 ADD CALLDATALOAD PUSH8 0xFFFFFFFFFFFFFFFF DUP2 GT ISZERO PUSH2 0x1A3D JUMPI PUSH2 0x1A3C PUSH2 0x1671 JUMP JUMPDEST JUMPDEST PUSH2 0x1A49 DUP9 DUP3 DUP10 ADD PUSH2 0x19A8 JUMP JUMPDEST SWAP5 POP POP PUSH1 0x40 PUSH2 0x1A5A DUP9 DUP3 DUP10 ADD PUSH2 0x1697 JUMP JUMPDEST SWAP4 POP POP PUSH1 0x60 PUSH2 0x1A6B DUP9 DUP3 DUP10 ADD PUSH2 0x1734 JUMP JUMPDEST SWAP3 POP POP PUSH1 0x80 PUSH2 0x1A7C DUP9 DUP3 DUP10 ADD PUSH2 0x1697 JUMP JUMPDEST SWAP2 POP POP SWAP3 SWAP6 POP SWAP3 SWAP6 SWAP1 SWAP4 POP JUMP JUMPDEST PUSH1 0x0 PUSH20 0xFFFFFFFFFFFFFFFFFFFFFFFFFFFFFFFFFFFFFFFF DUP3 AND SWAP1 POP SWAP2 SWAP1 POP JUMP JUMPDEST PUSH1 0x0 DUP2 SWAP1 POP SWAP2 SWAP1 POP JUMP JUMPDEST PUSH1 0x0 PUSH2 0x1ACE PUSH2 0x1AC9 PUSH2 0x1AC4 DUP5 PUSH2 0x1A89 JUMP JUMPDEST PUSH2 0x1AA9 JUMP JUMPDEST PUSH2 0x1A89 JUMP JUMPDEST SWAP1 POP SWAP2 SWAP1 POP JUMP JUMPDEST PUSH1 0x0 PUSH2 0x1AE0 DUP3 PUSH2 0x1AB3 JUMP JUMPDEST SWAP1 POP SWAP2 SWAP1 POP JUMP JUMPDEST PUSH1 0x0 PUSH2 0x1AF2 DUP3 PUSH2 0x1AD5 JUMP JUMPDEST SWAP1 POP SWAP2 SWAP1 POP JUMP JUMPDEST PUSH2 0x1B02 DUP2 PUSH2 0x1AE7 JUMP JUMPDEST DUP3 MSTORE POP POP JUMP JUMPDEST PUSH1 0x0 PUSH1 0x20 DUP3 ADD SWAP1 POP PUSH2 0x1B1D PUSH1 0x0 DUP4 ADD DUP5 PUSH2 0x1AF9 JUMP JUMPDEST SWAP3 SWAP2 POP POP JUMP JUMPDEST PUSH1 0x0 PUSH2 0x1B2E DUP3 PUSH2 0x1A89 JUMP JUMPDEST SWAP1 POP SWAP2 SWAP1 POP JUMP JUMPDEST PUSH2 0x1B3E DUP2 PUSH2 0x1B23 JUMP JUMPDEST DUP2 EQ PUSH2 0x1B49 JUMPI PUSH1 0x0 DUP1 REVERT JUMPDEST POP JUMP JUMPDEST PUSH1 0x0 DUP2 CALLDATALOAD SWAP1 POP PUSH2 0x1B5B DUP2 PUSH2 0x1B35 JUMP JUMPDEST SWAP3 SWAP2 POP POP JUMP JUMPDEST PUSH2 0x1B6A DUP2 PUSH2 0x1776 JUMP JUMPDEST DUP2 EQ PUSH2 0x1B75 JUMPI PUSH1 0x0 DUP1 REVERT JUMPDEST POP JUMP JUMPDEST PUSH1 0x0 DUP2 CALLDATALOAD SWAP1 POP PUSH2 0x1B87 DUP2 PUSH2 0x1B61 JUMP JUMPDEST SWAP3 SWAP2 POP POP JUMP JUMPDEST PUSH1 0x0 DUP1 PUSH1 0x0 DUP1 PUSH1 0x0 PUSH1 0xA0 DUP7 DUP9 SUB SLT ISZERO PUSH2 0x1BA9 JUMPI PUSH2 0x1BA8 PUSH2 0x166C JUMP JUMPDEST JUMPDEST PUSH1 0x0 PUSH2 0x1BB7 DUP9 DUP3 DUP10 ADD PUSH2 0x1734 JUMP JUMPDEST SWAP6 POP POP PUSH1 0x20 PUSH2 0x1BC8 DUP9 DUP3 DUP10 ADD PUSH2 0x1B4C JUMP JUMPDEST SWAP5 POP POP PUSH1 0x40 PUSH2 0x1BD9 DUP9 DUP3 DUP10 ADD PUSH2 0x1B4C JUMP JUMPDEST SWAP4 POP POP PUSH1 0x60 PUSH2 0x1BEA DUP9 DUP3 DUP10 ADD PUSH2 0x1B78 JUMP JUMPDEST SWAP3 POP POP PUSH1 0x80 PUSH2 0x1BFB DUP9 DUP3 DUP10 ADD PUSH2 0x1B4C JUMP JUMPDEST SWAP2 POP POP SWAP3 SWAP6 POP SWAP3 SWAP6 SWAP1 SWAP4 POP JUMP JUMPDEST PUSH1 0x0 DUP1 PUSH1 0x0 DUP1 PUSH1 0x80 DUP6 DUP8 SUB SLT ISZERO PUSH2 0x1C22 JUMPI PUSH2 0x1C21 PUSH2 0x166C JUMP JUMPDEST JUMPDEST PUSH1 0x0 PUSH2 0x1C30 DUP8 DUP3 DUP9 ADD PUSH2 0x1734 JUMP JUMPDEST SWAP5 POP POP PUSH1 0x20 PUSH2 0x1C41 DUP8 DUP3 DUP9 ADD PUSH2 0x1B4C JUMP JUMPDEST SWAP4 POP POP PUSH1 0x40 PUSH2 0x1C52 DUP8 DUP3 DUP9 ADD PUSH2 0x1B4C JUMP JUMPDEST SWAP3 POP POP PUSH1 0x60 PUSH2 0x1C63 DUP8 DUP3 DUP9 ADD PUSH2 0x1B78 JUMP JUMPDEST SWAP2 POP POP SWAP3 SWAP6 SWAP2 SWAP5 POP SWAP3 POP JUMP JUMPDEST PUSH1 0x0 PUSH2 0x1C7A DUP3 PUSH2 0x1AD5 JUMP JUMPDEST SWAP1 POP SWAP2 SWAP1 POP JUMP JUMPDEST PUSH2 0x1C8A DUP2 PUSH2 0x1C6F JUMP JUMPDEST DUP3 MSTORE POP POP JUMP JUMPDEST PUSH1 0x0 PUSH1 0x20 DUP3 ADD SWAP1 POP PUSH2 0x1CA5 PUSH1 0x0 DUP4 ADD DUP5 PUSH2 0x1C81 JUMP JUMPDEST SWAP3 SWAP2 POP POP JUMP JUMPDEST PUSH1 0x0 PUSH2 0x1CB6 DUP3 PUSH2 0x1AD5 JUMP JUMPDEST SWAP1 POP SWAP2 SWAP1 POP JUMP JUMPDEST PUSH2 0x1CC6 DUP2 PUSH2 0x1CAB JUMP JUMPDEST DUP3 MSTORE POP POP JUMP JUMPDEST PUSH1 0x0 PUSH1 0x20 DUP3 ADD SWAP1 POP PUSH2 0x1CE1 PUSH1 0x0 DUP4 ADD DUP5 PUSH2 0x1CBD JUMP JUMPDEST SWAP3 SWAP2 POP POP JUMP JUMPDEST PUSH1 0x0 DUP1 PUSH1 0x40 DUP4 DUP6 SUB SLT ISZERO PUSH2 0x1CFE JUMPI PUSH2 0x1CFD PUSH2 0x166C JUMP JUMPDEST JUMPDEST PUSH1 0x0 PUSH2 0x1D0C DUP6 DUP3 DUP7 ADD PUSH2 0x1734 JUMP JUMPDEST SWAP3 POP POP PUSH1 0x20 PUSH2 0x1D1D DUP6 DUP3 DUP7 ADD PUSH2 0x1697 JUMP JUMPDEST SWAP2 POP POP SWAP3 POP SWAP3 SWAP1 POP JUMP JUMPDEST PUSH2 0x1D30 DUP2 PUSH2 0x170F JUMP JUMPDEST DUP3 MSTORE POP POP JUMP JUMPDEST PUSH1 0x0 DUP2 SWAP1 POP SWAP2 SWAP1 POP JUMP JUMPDEST PUSH1 0x0 PUSH2 0x1D5B PUSH2 0x1D56 PUSH2 0x1D51 DUP5 PUSH2 0x1D36 JUMP JUMPDEST PUSH2 0x1AA9 JUMP JUMPDEST PUSH2 0x1776 JUMP JUMPDEST SWAP1 POP SWAP2 SWAP1 POP JUMP JUMPDEST PUSH2 0x1D6B DUP2 PUSH2 0x1D40 JUMP JUMPDEST DUP3 MSTORE POP POP JUMP JUMPDEST PUSH1 0x0 PUSH1 0x60 DUP3 ADD SWAP1 POP PUSH2 0x1D86 PUSH1 0x0 DUP4 ADD DUP7 PUSH2 0x1D27 JUMP JUMPDEST PUSH2 0x1D93 PUSH1 0x20 DUP4 ADD DUP6 PUSH2 0x1D62 JUMP JUMPDEST PUSH2 0x1DA0 PUSH1 0x40 DUP4 ADD DUP5 PUSH2 0x1780 JUMP JUMPDEST SWAP5 SWAP4 POP POP POP POP JUMP JUMPDEST PUSH1 0x0 DUP2 MLOAD SWAP1 POP PUSH2 0x1DB7 DUP2 PUSH2 0x1B61 JUMP JUMPDEST SWAP3 SWAP2 POP POP JUMP JUMPDEST PUSH1 0x0 DUP1 PUSH1 0x40 DUP4 DUP6 SUB SLT ISZERO PUSH2 0x1DD4 JUMPI PUSH2 0x1DD3 PUSH2 0x166C JUMP JUMPDEST JUMPDEST PUSH1 0x0 PUSH2 0x1DE2 DUP6 DUP3 DUP7 ADD PUSH2 0x1DA8 JUMP JUMPDEST SWAP3 POP POP PUSH1 0x20 PUSH2 0x1DF3 DUP6 DUP3 DUP7 ADD PUSH2 0x1DA8 JUMP JUMPDEST SWAP2 POP POP SWAP3 POP SWAP3 SWAP1 POP JUMP JUMPDEST PUSH1 0x0 PUSH1 0x20 DUP3 DUP5 SUB SLT ISZERO PUSH2 0x1E13 JUMPI PUSH2 0x1E12 PUSH2 0x166C JUMP JUMPDEST JUMPDEST PUSH1 0x0 PUSH2 0x1E21 DUP5 DUP3 DUP6 ADD PUSH2 0x1DA8 JUMP JUMPDEST SWAP2 POP POP SWAP3 SWAP2 POP POP JUMP JUMPDEST PUSH32 0x4E487B7100000000000000000000000000000000000000000000000000000000 PUSH1 0x0 MSTORE PUSH1 0x11 PUSH1 0x4 MSTORE PUSH1 0x24 PUSH1 0x0 REVERT JUMPDEST PUSH1 0x0 PUSH2 0x1E64 DUP3 PUSH2 0x1776 JUMP JUMPDEST SWAP2 POP PUSH2 0x1E6F DUP4 PUSH2 0x1776 JUMP JUMPDEST SWAP3 POP DUP3 DUP3 ADD SWAP1 POP DUP1 DUP3 GT ISZERO PUSH2 0x1E87 JUMPI PUSH2 0x1E86 PUSH2 0x1E2A JUMP JUMPDEST JUMPDEST SWAP3 SWAP2 POP POP JUMP JUMPDEST PUSH32 0x4E487B7100000000000000000000000000000000000000000000000000000000 PUSH1 0x0 MSTORE PUSH1 0x32 PUSH1 0x4 MSTORE PUSH1 0x24 PUSH1 0x0 REVERT JUMPDEST PUSH1 0x0 DUP2 MLOAD SWAP1 POP SWAP2 SWAP1 POP JUMP JUMPDEST PUSH1 0x0 DUP3 DUP3 MSTORE PUSH1 0x20 DUP3 ADD SWAP1 POP SWAP3 SWAP2 POP POP JUMP JUMPDEST PUSH1 0x0 JUMPDEST DUP4 DUP2 LT ISZERO PUSH2 0x1EF6 JUMPI DUP1 DUP3 ADD MLOAD DUP2 DUP5 ADD MSTORE PUSH1 0x20 DUP2 ADD SWAP1 POP PUSH2 0x1EDB JUMP JUMPDEST PUSH1 0x0 DUP5 DUP5 ADD MSTORE POP POP POP POP JUMP JUMPDEST PUSH1 0x0 PUSH2 0x1F0D DUP3 PUSH2 0x1EBC JUMP JUMPDEST PUSH2 0x1F17 DUP2 DUP6 PUSH2 0x1EC7 JUMP JUMPDEST SWAP4 POP PUSH2 0x1F27 DUP2 DUP6 PUSH1 0x20 DUP7 ADD PUSH2 0x1ED8 JUMP JUMPDEST PUSH2 0x1F30 DUP2 PUSH2 0x17B4 JUMP JUMPDEST DUP5 ADD SWAP2 POP POP SWAP3 SWAP2 POP POP JUMP JUMPDEST PUSH1 0x0 PUSH1 0x20 DUP3 ADD SWAP1 POP DUP2 DUP2 SUB PUSH1 0x0 DUP4 ADD MSTORE PUSH2 0x1F55 DUP2 DUP5 PUSH2 0x1F02 JUMP JUMPDEST SWAP1 POP SWAP3 SWAP2 POP POP JUMP JUMPDEST PUSH1 0x0 DUP1 REVERT JUMPDEST PUSH1 0x0 DUP1 REVERT JUMPDEST PUSH1 0x0 PUSH1 0xFF DUP3 AND SWAP1 POP SWAP2 SWAP1 POP JUMP JUMPDEST PUSH2 0x1F7D DUP2 PUSH2 0x1F67 JUMP JUMPDEST DUP2 EQ PUSH2 0x1F88 JUMPI PUSH1 0x0 DUP1 REVERT JUMPDEST POP JUMP JUMPDEST PUSH1 0x0 DUP2 MLOAD SWAP1 POP PUSH2 0x1F9A DUP2 PUSH2 0x1F74 JUMP JUMPDEST SWAP3 SWAP2 POP POP JUMP JUMPDEST PUSH1 0x0 PUSH4 0xFFFFFFFF DUP3 AND SWAP1 POP SWAP2 SWAP1 POP JUMP JUMPDEST PUSH2 0x1FB9 DUP2 PUSH2 0x1FA0 JUMP JUMPDEST DUP2 EQ PUSH2 0x1FC4 JUMPI PUSH1 0x0 DUP1 REVERT JUMPDEST POP JUMP JUMPDEST PUSH1 0x0 DUP2 MLOAD SWAP1 POP PUSH2 0x1FD6 DUP2 PUSH2 0x1FB0 JUMP JUMPDEST SWAP3 SWAP2 POP POP JUMP JUMPDEST PUSH1 0x0 DUP2 MLOAD SWAP1 POP PUSH2 0x1FEB DUP2 PUSH2 0x171D JUMP JUMPDEST SWAP3 SWAP2 POP POP JUMP JUMPDEST PUSH1 0x0 DUP2 MLOAD SWAP1 POP PUSH2 0x2000 DUP2 PUSH2 0x1680 JUMP JUMPDEST SWAP3 SWAP2 POP POP JUMP JUMPDEST PUSH1 0x0 PUSH8 0xFFFFFFFFFFFFFFFF DUP3 AND SWAP1 POP SWAP2 SWAP1 POP JUMP JUMPDEST PUSH2 0x2023 DUP2 PUSH2 0x2006 JUMP JUMPDEST DUP2 EQ PUSH2 0x202E JUMPI PUSH1 0x0 DUP1 REVERT JUMPDEST POP JUMP JUMPDEST PUSH1 0x0 DUP2 MLOAD SWAP1 POP PUSH2 0x2040 DUP2 PUSH2 0x201A JUMP JUMPDEST SWAP3 SWAP2 POP POP JUMP JUMPDEST PUSH1 0x0 PUSH2 0x2059 PUSH2 0x2054 DUP5 PUSH2 0x1840 JUMP JUMPDEST PUSH2 0x1825 JUMP JUMPDEST SWAP1 POP DUP3 DUP2 MSTORE PUSH1 0x20 DUP2 ADD DUP5 DUP5 DUP5 ADD GT ISZERO PUSH2 0x2075 JUMPI PUSH2 0x2074 PUSH2 0x17AF JUMP JUMPDEST JUMPDEST PUSH2 0x2080 DUP5 DUP3 DUP6 PUSH2 0x1ED8 JUMP JUMPDEST POP SWAP4 SWAP3 POP POP POP JUMP JUMPDEST PUSH1 0x0 DUP3 PUSH1 0x1F DUP4 ADD SLT PUSH2 0x209D JUMPI PUSH2 0x209C PUSH2 0x17AA JUMP JUMPDEST JUMPDEST DUP2 MLOAD PUSH2 0x20AD DUP5 DUP3 PUSH1 0x20 DUP7 ADD PUSH2 0x2046 JUMP JUMPDEST SWAP2 POP POP SWAP3 SWAP2 POP POP JUMP JUMPDEST PUSH1 0x0 PUSH8 0xFFFFFFFFFFFFFFFF DUP3 GT ISZERO PUSH2 0x20D1 JUMPI PUSH2 0x20D0 PUSH2 0x17C5 JUMP JUMPDEST JUMPDEST PUSH1 0x20 DUP3 MUL SWAP1 POP PUSH1 0x20 DUP2 ADD SWAP1 POP SWAP2 SWAP1 POP JUMP JUMPDEST PUSH1 0x0 PUSH1 0x80 DUP3 DUP5 SUB SLT ISZERO PUSH2 0x20F8 JUMPI PUSH2 0x20F7 PUSH2 0x1F5D JUMP JUMPDEST JUMPDEST PUSH2 0x2102 PUSH1 0x80 PUSH2 0x1825 JUMP JUMPDEST SWAP1 POP PUSH1 0x0 PUSH2 0x2112 DUP5 DUP3 DUP6 ADD PUSH2 0x1FF1 JUMP JUMPDEST PUSH1 0x0 DUP4 ADD MSTORE POP PUSH1 0x20 PUSH2 0x2126 DUP5 DUP3 DUP6 ADD PUSH2 0x1FF1 JUMP JUMPDEST PUSH1 0x20 DUP4 ADD MSTORE POP PUSH1 0x40 PUSH2 0x213A DUP5 DUP3 DUP6 ADD PUSH2 0x1F8B JUMP JUMPDEST PUSH1 0x40 DUP4 ADD MSTORE POP PUSH1 0x60 PUSH2 0x214E DUP5 DUP3 DUP6 ADD PUSH2 0x1F8B JUMP JUMPDEST PUSH1 0x60 DUP4 ADD MSTORE POP SWAP3 SWAP2 POP POP JUMP JUMPDEST PUSH1 0x0 PUSH2 0x216D PUSH2 0x2168 DUP5 PUSH2 0x20B6 JUMP JUMPDEST PUSH2 0x1825 JUMP JUMPDEST SWAP1 POP DUP1 DUP4 DUP3 MSTORE PUSH1 0x20 DUP3 ADD SWAP1 POP PUSH1 0x80 DUP5 MUL DUP4 ADD DUP6 DUP2 GT ISZERO PUSH2 0x2190 JUMPI PUSH2 0x218F PUSH2 0x191C JUMP JUMPDEST JUMPDEST DUP4 JUMPDEST DUP2 DUP2 LT ISZERO PUSH2 0x21B9 JUMPI DUP1 PUSH2 0x21A5 DUP9 DUP3 PUSH2 0x20E2 JUMP JUMPDEST DUP5 MSTORE PUSH1 0x20 DUP5 ADD SWAP4 POP POP PUSH1 0x80 DUP2 ADD SWAP1 POP PUSH2 0x2192 JUMP JUMPDEST POP POP POP SWAP4 SWAP3 POP POP POP JUMP JUMPDEST PUSH1 0x0 DUP3 PUSH1 0x1F DUP4 ADD SLT PUSH2 0x21D8 JUMPI PUSH2 0x21D7 PUSH2 0x17AA JUMP JUMPDEST JUMPDEST DUP2 MLOAD PUSH2 0x21E8 DUP5 DUP3 PUSH1 0x20 DUP7 ADD PUSH2 0x215A JUMP JUMPDEST SWAP2 POP POP SWAP3 SWAP2 POP POP JUMP JUMPDEST PUSH1 0x0 PUSH2 0x160 DUP3 DUP5 SUB SLT ISZERO PUSH2 0x2208 JUMPI PUSH2 0x2207 PUSH2 0x1F5D JUMP JUMPDEST JUMPDEST PUSH2 0x2213 PUSH2 0x160 PUSH2 0x1825 JUMP JUMPDEST SWAP1 POP PUSH1 0x0 PUSH2 0x2223 DUP5 DUP3 DUP6 ADD PUSH2 0x1F8B JUMP JUMPDEST PUSH1 0x0 DUP4 ADD MSTORE POP PUSH1 0x20 PUSH2 0x2237 DUP5 DUP3 DUP6 ADD PUSH2 0x1FC7 JUMP JUMPDEST PUSH1 0x20 DUP4 ADD MSTORE POP PUSH1 0x40 PUSH2 0x224B DUP5 DUP3 DUP6 ADD PUSH2 0x1FC7 JUMP JUMPDEST PUSH1 0x40 DUP4 ADD MSTORE POP PUSH1 0x60 PUSH2 0x225F DUP5 DUP3 DUP6 ADD PUSH2 0x1FDC JUMP JUMPDEST PUSH1 0x60 DUP4 ADD MSTORE POP PUSH1 0x80 PUSH2 0x2273 DUP5 DUP3 DUP6 ADD PUSH2 0x1FF1 JUMP JUMPDEST PUSH1 0x80 DUP4 ADD MSTORE POP PUSH1 0xA0 PUSH2 0x2287 DUP5 DUP3 DUP6 ADD PUSH2 0x2031 JUMP JUMPDEST PUSH1 0xA0 DUP4 ADD MSTORE POP PUSH1 0xC0 PUSH2 0x229B DUP5 DUP3 DUP6 ADD PUSH2 0x1F8B JUMP JUMPDEST PUSH1 0xC0 DUP4 ADD MSTORE POP PUSH1 0xE0 DUP3 ADD MLOAD PUSH8 0xFFFFFFFFFFFFFFFF DUP2 GT ISZERO PUSH2 0x22BF JUMPI PUSH2 0x22BE PUSH2 0x1F62 JUMP JUMPDEST JUMPDEST PUSH2 0x22CB DUP5 DUP3 DUP6 ADD PUSH2 0x2088 JUMP JUMPDEST PUSH1 0xE0 DUP4 ADD MSTORE POP PUSH2 0x100 PUSH2 0x22E0 DUP5 DUP3 DUP6 ADD PUSH2 0x1FC7 JUMP JUMPDEST PUSH2 0x100 DUP4 ADD MSTORE POP PUSH2 0x120 DUP3 ADD MLOAD PUSH8 0xFFFFFFFFFFFFFFFF DUP2 GT ISZERO PUSH2 0x2306 JUMPI PUSH2 0x2305 PUSH2 0x1F62 JUMP JUMPDEST JUMPDEST PUSH2 0x2312 DUP5 DUP3 DUP6 ADD PUSH2 0x21C3 JUMP JUMPDEST PUSH2 0x120 DUP4 ADD MSTORE POP PUSH2 0x140 PUSH2 0x2328 DUP5 DUP3 DUP6 ADD PUSH2 0x1FF1 JUMP JUMPDEST PUSH2 0x140 DUP4 ADD MSTORE POP SWAP3 SWAP2 POP POP JUMP JUMPDEST PUSH1 0x0 PUSH1 0x20 DUP3 DUP5 SUB SLT ISZERO PUSH2 0x234B JUMPI PUSH2 0x234A PUSH2 0x166C JUMP JUMPDEST JUMPDEST PUSH1 0x0 DUP3 ADD MLOAD PUSH8 0xFFFFFFFFFFFFFFFF DUP2 GT ISZERO PUSH2 0x2369 JUMPI PUSH2 0x2368 PUSH2 0x1671 JUMP JUMPDEST JUMPDEST PUSH2 0x2375 DUP5 DUP3 DUP6 ADD PUSH2 0x21F1 JUMP JUMPDEST SWAP2 POP POP SWAP3 SWAP2 POP POP JUMP JUMPDEST PUSH1 0x0 PUSH1 0x20 DUP3 ADD SWAP1 POP PUSH2 0x2393 PUSH1 0x0 DUP4 ADD DUP5 PUSH2 0x1D27 JUMP JUMPDEST SWAP3 SWAP2 POP POP JUMP JUMPDEST PUSH1 0x0 PUSH1 0x20 DUP3 DUP5 SUB SLT ISZERO PUSH2 0x23AF JUMPI PUSH2 0x23AE PUSH2 0x166C JUMP JUMPDEST JUMPDEST PUSH1 0x0 PUSH2 0x23BD DUP5 DUP3 DUP6 ADD PUSH2 0x1FF1 JUMP JUMPDEST SWAP2 POP POP SWAP3 SWAP2 POP POP JUMP JUMPDEST PUSH1 0x0 DUP3 DUP3 MSTORE PUSH1 0x20 DUP3 ADD SWAP1 POP SWAP3 SWAP2 POP POP JUMP JUMPDEST PUSH32 0x4E6F74206120546F6B656E204272696467652056414100000000000000000000 PUSH1 0x0 DUP3 ADD MSTORE POP JUMP JUMPDEST PUSH1 0x0 PUSH2 0x240D PUSH1 0x16 DUP4 PUSH2 0x23C6 JUMP JUMPDEST SWAP2 POP PUSH2 0x2418 DUP3 PUSH2 0x23D7 JUMP JUMPDEST PUSH1 0x20 DUP3 ADD SWAP1 POP SWAP2 SWAP1 POP JUMP JUMPDEST PUSH1 0x0 PUSH1 0x20 DUP3 ADD SWAP1 POP DUP2 DUP2 SUB PUSH1 0x0 DUP4 ADD MSTORE PUSH2 0x243C DUP2 PUSH2 0x2400 JUMP JUMPDEST SWAP1 POP SWAP2 SWAP1 POP JUMP JUMPDEST PUSH1 0x0 PUSH2 0x100 DUP3 DUP5 SUB SLT ISZERO PUSH2 0x245A JUMPI PUSH2 0x2459 PUSH2 0x1F5D JUMP JUMPDEST JUMPDEST PUSH2 0x2465 PUSH2 0x100 PUSH2 0x1825 JUMP JUMPDEST SWAP1 POP PUSH1 0x0 PUSH2 0x2475 DUP5 DUP3 DUP6 ADD PUSH2 0x1F8B JUMP JUMPDEST PUSH1 0x0 DUP4 ADD MSTORE POP PUSH1 0x20 PUSH2 0x2489 DUP5 DUP3 DUP6 ADD PUSH2 0x1DA8 JUMP JUMPDEST PUSH1 0x20 DUP4 ADD MSTORE POP PUSH1 0x40 PUSH2 0x249D DUP5 DUP3 DUP6 ADD PUSH2 0x1FF1 JUMP JUMPDEST PUSH1 0x40 DUP4 ADD MSTORE POP PUSH1 0x60 PUSH2 0x24B1 DUP5 DUP3 DUP6 ADD PUSH2 0x1FDC JUMP JUMPDEST PUSH1 0x60 DUP4 ADD MSTORE POP PUSH1 0x80 PUSH2 0x24C5 DUP5 DUP3 DUP6 ADD PUSH2 0x1FF1 JUMP JUMPDEST PUSH1 0x80 DUP4 ADD MSTORE POP PUSH1 0xA0 PUSH2 0x24D9 DUP5 DUP3 DUP6 ADD PUSH2 0x1FDC JUMP JUMPDEST PUSH1 0xA0 DUP4 ADD MSTORE POP PUSH1 0xC0 PUSH2 0x24ED DUP5 DUP3 DUP6 ADD PUSH2 0x1FF1 JUMP JUMPDEST PUSH1 0xC0 DUP4 ADD MSTORE POP PUSH1 0xE0 DUP3 ADD MLOAD PUSH8 0xFFFFFFFFFFFFFFFF DUP2 GT ISZERO PUSH2 0x2511 JUMPI PUSH2 0x2510 PUSH2 0x1F62 JUMP JUMPDEST JUMPDEST PUSH2 0x251D DUP5 DUP3 DUP6 ADD PUSH2 0x2088 JUMP JUMPDEST PUSH1 0xE0 DUP4 ADD MSTORE POP SWAP3 SWAP2 POP POP JUMP JUMPDEST PUSH1 0x0 PUSH1 0x20 DUP3 DUP5 SUB SLT ISZERO PUSH2 0x253F JUMPI PUSH2 0x253E PUSH2 0x166C JUMP JUMPDEST JUMPDEST PUSH1 0x0 DUP3 ADD MLOAD PUSH8 0xFFFFFFFFFFFFFFFF DUP2 GT ISZERO PUSH2 0x255D JUMPI PUSH2 0x255C PUSH2 0x1671 JUMP JUMPDEST JUMPDEST PUSH2 0x2569 DUP5 DUP3 DUP6 ADD PUSH2 0x2443 JUMP JUMPDEST SWAP2 POP POP SWAP3 SWAP2 POP POP JUMP JUMPDEST PUSH1 0x0 PUSH1 0x20 DUP3 DUP5 SUB SLT ISZERO PUSH2 0x2588 JUMPI PUSH2 0x2587 PUSH2 0x166C JUMP JUMPDEST JUMPDEST PUSH1 0x0 PUSH2 0x2596 DUP5 DUP3 DUP6 ADD PUSH2 0x1FDC JUMP JUMPDEST SWAP2 POP POP SWAP3 SWAP2 POP POP JUMP JUMPDEST PUSH32 0x546F6B656E20776173206E6F742073656E7420746F2074686973206164647265 PUSH1 0x0 DUP3 ADD MSTORE PUSH32 0x7373000000000000000000000000000000000000000000000000000000000000 PUSH1 0x20 DUP3 ADD MSTORE POP JUMP JUMPDEST PUSH1 0x0 PUSH2 0x25FB PUSH1 0x22 DUP4 PUSH2 0x23C6 JUMP JUMPDEST SWAP2 POP PUSH2 0x2606 DUP3 PUSH2 0x259F JUMP JUMPDEST PUSH1 0x40 DUP3 ADD SWAP1 POP SWAP2 SWAP1 POP JUMP JUMPDEST PUSH1 0x0 PUSH1 0x20 DUP3 ADD SWAP1 POP DUP2 DUP2 SUB PUSH1 0x0 DUP4 ADD MSTORE PUSH2 0x262A DUP2 PUSH2 0x25EE JUMP JUMPDEST SWAP1 POP SWAP2 SWAP1 POP JUMP JUMPDEST PUSH1 0x0 PUSH1 0x20 DUP3 DUP5 SUB SLT ISZERO PUSH2 0x2647 JUMPI PUSH2 0x2646 PUSH2 0x166C JUMP JUMPDEST JUMPDEST PUSH1 0x0 DUP3 ADD MLOAD PUSH8 0xFFFFFFFFFFFFFFFF DUP2 GT ISZERO PUSH2 0x2665 JUMPI PUSH2 0x2664 PUSH2 0x1671 JUMP JUMPDEST JUMPDEST PUSH2 0x2671 DUP5 DUP3 DUP6 ADD PUSH2 0x2088 JUMP JUMPDEST SWAP2 POP POP SWAP3 SWAP2 POP POP JUMP JUMPDEST PUSH1 0x0 PUSH2 0x2685 DUP3 PUSH2 0x1F67 JUMP JUMPDEST SWAP2 POP PUSH2 0x2690 DUP4 PUSH2 0x1F67 JUMP JUMPDEST SWAP3 POP DUP3 DUP3 SUB SWAP1 POP PUSH1 0xFF DUP2 GT ISZERO PUSH2 0x26A9 JUMPI PUSH2 0x26A8 PUSH2 0x1E2A JUMP JUMPDEST JUMPDEST SWAP3 SWAP2 POP POP JUMP JUMPDEST PUSH1 0x0 DUP2 PUSH1 0x1 SHR SWAP1 POP SWAP2 SWAP1 POP JUMP JUMPDEST PUSH1 0x0 DUP1 DUP3 SWAP2 POP DUP4 SWAP1 POP JUMPDEST PUSH1 0x1 DUP6 GT ISZERO PUSH2 0x2706 JUMPI DUP1 DUP7 DIV DUP2 GT ISZERO PUSH2 0x26E2 JUMPI PUSH2 0x26E1 PUSH2 0x1E2A JUMP JUMPDEST JUMPDEST PUSH1 0x1 DUP6 AND ISZERO PUSH2 0x26F1 JUMPI DUP1 DUP3 MUL SWAP2 POP JUMPDEST DUP1 DUP2 MUL SWAP1 POP PUSH2 0x26FF DUP6 PUSH2 0x26AF JUMP JUMPDEST SWAP5 POP PUSH2 0x26C6 JUMP JUMPDEST SWAP5 POP SWAP5 SWAP3 POP POP POP JUMP JUMPDEST PUSH1 0x0 DUP3 PUSH2 0x271F JUMPI PUSH1 0x1 SWAP1 POP PUSH2 0x27DB JUMP JUMPDEST DUP2 PUSH2 0x272D JUMPI PUSH1 0x0 SWAP1 POP PUSH2 0x27DB JUMP JUMPDEST DUP2 PUSH1 0x1 DUP2 EQ PUSH2 0x2743 JUMPI PUSH1 0x2 DUP2 EQ PUSH2 0x274D JUMPI PUSH2 0x277C JUMP JUMPDEST PUSH1 0x1 SWAP2 POP POP PUSH2 0x27DB JUMP JUMPDEST PUSH1 0xFF DUP5 GT ISZERO PUSH2 0x275F JUMPI PUSH2 0x275E PUSH2 0x1E2A JUMP JUMPDEST JUMPDEST DUP4 PUSH1 0x2 EXP SWAP2 POP DUP5 DUP3 GT ISZERO PUSH2 0x2776 JUMPI PUSH2 0x2775 PUSH2 0x1E2A JUMP JUMPDEST JUMPDEST POP PUSH2 0x27DB JUMP JUMPDEST POP PUSH1 0x20 DUP4 LT PUSH2 0x133 DUP4 LT AND PUSH1 0x4E DUP5 LT PUSH1 0xB DUP5 LT AND OR ISZERO PUSH2 0x27B1 JUMPI DUP3 DUP3 EXP SWAP1 POP DUP4 DUP2 GT ISZERO PUSH2 0x27AC JUMPI PUSH2 0x27AB PUSH2 0x1E2A JUMP JUMPDEST JUMPDEST PUSH2 0x27DB JUMP JUMPDEST PUSH2 0x27BE DUP5 DUP5 DUP5 PUSH1 0x1 PUSH2 0x26BC JUMP JUMPDEST SWAP3 POP SWAP1 POP DUP2 DUP5 DIV DUP2 GT ISZERO PUSH2 0x27D5 JUMPI PUSH2 0x27D4 PUSH2 0x1E2A JUMP JUMPDEST JUMPDEST DUP2 DUP2 MUL SWAP1 POP JUMPDEST SWAP4 SWAP3 POP POP POP JUMP JUMPDEST PUSH1 0x0 PUSH2 0x27ED DUP3 PUSH2 0x1776 JUMP JUMPDEST SWAP2 POP PUSH2 0x27F8 DUP4 PUSH2 0x1F67 JUMP JUMPDEST SWAP3 POP PUSH2 0x2825 PUSH32 0xFFFFFFFFFFFFFFFFFFFFFFFFFFFFFFFFFFFFFFFFFFFFFFFFFFFFFFFFFFFFFFFF DUP5 DUP5 PUSH2 0x270F JUMP JUMPDEST SWAP1 POP SWAP3 SWAP2 POP POP JUMP JUMPDEST PUSH1 0x0 PUSH2 0x2838 DUP3 PUSH2 0x1776 JUMP JUMPDEST SWAP2 POP PUSH2 0x2843 DUP4 PUSH2 0x1776 JUMP JUMPDEST SWAP3 POP DUP3 DUP3 MUL PUSH2 0x2851 DUP2 PUSH2 0x1776 JUMP JUMPDEST SWAP2 POP DUP3 DUP3 DIV DUP5 EQ DUP4 ISZERO OR PUSH2 0x2868 JUMPI PUSH2 0x2867 PUSH2 0x1E2A JUMP JUMPDEST JUMPDEST POP SWAP3 SWAP2 POP POP JUMP JUMPDEST PUSH1 0x0 PUSH2 0x287A DUP3 PUSH2 0x1776 JUMP JUMPDEST SWAP2 POP PUSH32 0xFFFFFFFFFFFFFFFFFFFFFFFFFFFFFFFFFFFFFFFFFFFFFFFFFFFFFFFFFFFFFFFF DUP3 SUB PUSH2 0x28AC JUMPI PUSH2 0x28AB PUSH2 0x1E2A JUMP JUMPDEST JUMPDEST PUSH1 0x1 DUP3 ADD SWAP1 POP SWAP2 SWAP1 POP JUMP JUMPDEST PUSH32 0x6D73672E76616C7565206D7573742062652071756F746543726F737343686169 PUSH1 0x0 DUP3 ADD MSTORE PUSH32 0x6E4465706F73697428746172676574436861696E290000000000000000000000 PUSH1 0x20 DUP3 ADD MSTORE POP JUMP JUMPDEST PUSH1 0x0 PUSH2 0x2913 PUSH1 0x35 DUP4 PUSH2 0x23C6 JUMP JUMPDEST SWAP2 POP PUSH2 0x291E DUP3 PUSH2 0x28B7 JUMP JUMPDEST PUSH1 0x40 DUP3 ADD SWAP1 POP SWAP2 SWAP1 POP JUMP JUMPDEST PUSH1 0x0 PUSH1 0x20 DUP3 ADD SWAP1 POP DUP2 DUP2 SUB PUSH1 0x0 DUP4 ADD MSTORE PUSH2 0x2942 DUP2 PUSH2 0x2906 JUMP JUMPDEST SWAP1 POP SWAP2 SWAP1 POP JUMP JUMPDEST PUSH2 0x2952 DUP2 PUSH2 0x1B23 JUMP JUMPDEST DUP3 MSTORE POP POP JUMP JUMPDEST PUSH1 0x0 PUSH1 0x60 DUP3 ADD SWAP1 POP PUSH2 0x296D PUSH1 0x0 DUP4 ADD DUP7 PUSH2 0x2949 JUMP JUMPDEST PUSH2 0x297A PUSH1 0x20 DUP4 ADD DUP6 PUSH2 0x2949 JUMP JUMPDEST PUSH2 0x2987 PUSH1 0x40 DUP4 ADD DUP5 PUSH2 0x1780 JUMP JUMPDEST SWAP5 SWAP4 POP POP POP POP JUMP JUMPDEST PUSH2 0x2998 DUP2 PUSH2 0x16D9 JUMP JUMPDEST DUP2 EQ PUSH2 0x29A3 JUMPI PUSH1 0x0 DUP1 REVERT JUMPDEST POP JUMP JUMPDEST PUSH1 0x0 DUP2 MLOAD SWAP1 POP PUSH2 0x29B5 DUP2 PUSH2 0x298F JUMP JUMPDEST SWAP3 SWAP2 POP POP JUMP JUMPDEST PUSH1 0x0 PUSH1 0x20 DUP3 DUP5 SUB SLT ISZERO PUSH2 0x29D1 JUMPI PUSH2 0x29D0 PUSH2 0x166C JUMP JUMPDEST JUMPDEST PUSH1 0x0 PUSH2 0x29DF DUP5 DUP3 DUP6 ADD PUSH2 0x29A6 JUMP JUMPDEST SWAP2 POP POP SWAP3 SWAP2 POP POP JUMP JUMPDEST PUSH1 0x0 PUSH1 0x20 DUP3 ADD SWAP1 POP PUSH2 0x29FD PUSH1 0x0 DUP4 ADD DUP5 PUSH2 0x2949 JUMP JUMPDEST SWAP3 SWAP2 POP POP JUMP JUMPDEST PUSH32 0x6D73672E76616C7565206D7573742062652071756F746543726F737343686169 PUSH1 0x0 DUP3 ADD MSTORE PUSH32 0x6E4465706F73697428746172676574436861696E29202B20616D6F756E740000 PUSH1 0x20 DUP3 ADD MSTORE POP JUMP JUMPDEST PUSH1 0x0 PUSH2 0x2A5F PUSH1 0x3E DUP4 PUSH2 0x23C6 JUMP JUMPDEST SWAP2 POP PUSH2 0x2A6A DUP3 PUSH2 0x2A03 JUMP JUMPDEST PUSH1 0x40 DUP3 ADD SWAP1 POP SWAP2 SWAP1 POP JUMP JUMPDEST PUSH1 0x0 PUSH1 0x20 DUP3 ADD SWAP1 POP DUP2 DUP2 SUB PUSH1 0x0 DUP4 ADD MSTORE PUSH2 0x2A8E DUP2 PUSH2 0x2A52 JUMP JUMPDEST SWAP1 POP SWAP2 SWAP1 POP JUMP JUMPDEST PUSH1 0x0 PUSH2 0x2AA0 DUP3 PUSH2 0x1B23 JUMP JUMPDEST SWAP1 POP SWAP2 SWAP1 POP JUMP JUMPDEST PUSH2 0x2AB0 DUP2 PUSH2 0x2A95 JUMP JUMPDEST DUP2 EQ PUSH2 0x2ABB JUMPI PUSH1 0x0 DUP1 REVERT JUMPDEST POP JUMP JUMPDEST PUSH1 0x0 DUP2 MLOAD SWAP1 POP PUSH2 0x2ACD DUP2 PUSH2 0x2AA7 JUMP JUMPDEST SWAP3 SWAP2 POP POP JUMP JUMPDEST PUSH1 0x0 PUSH1 0x20 DUP3 DUP5 SUB SLT ISZERO PUSH2 0x2AE9 JUMPI PUSH2 0x2AE8 PUSH2 0x166C JUMP JUMPDEST JUMPDEST PUSH1 0x0 PUSH2 0x2AF7 DUP5 DUP3 DUP6 ADD PUSH2 0x2ABE JUMP JUMPDEST SWAP2 POP POP SWAP3 SWAP2 POP POP JUMP JUMPDEST PUSH32 0x4E6F7420616C6C6F77656420746F207365742072656769737465726564207365 PUSH1 0x0 DUP3 ADD MSTORE PUSH32 0x6E64657200000000000000000000000000000000000000000000000000000000 PUSH1 0x20 DUP3 ADD MSTORE POP JUMP JUMPDEST PUSH1 0x0 PUSH2 0x2B5C PUSH1 0x24 DUP4 PUSH2 0x23C6 JUMP JUMPDEST SWAP2 POP PUSH2 0x2B67 DUP3 PUSH2 0x2B00 JUMP JUMPDEST PUSH1 0x40 DUP3 ADD SWAP1 POP SWAP2 SWAP1 POP JUMP JUMPDEST PUSH1 0x0 PUSH1 0x20 DUP3 ADD SWAP1 POP DUP2 DUP2 SUB PUSH1 0x0 DUP4 ADD MSTORE PUSH2 0x2B8B DUP2 PUSH2 0x2B4F JUMP JUMPDEST SWAP1 POP SWAP2 SWAP1 POP JUMP JUMPDEST PUSH2 0x2B9B DUP2 PUSH2 0x1676 JUMP JUMPDEST DUP3 MSTORE POP POP JUMP JUMPDEST PUSH1 0x0 PUSH1 0x40 DUP3 ADD SWAP1 POP PUSH2 0x2BB6 PUSH1 0x0 DUP4 ADD DUP6 PUSH2 0x1D27 JUMP JUMPDEST PUSH2 0x2BC3 PUSH1 0x20 DUP4 ADD DUP5 PUSH2 0x2B92 JUMP JUMPDEST SWAP4 SWAP3 POP POP POP JUMP JUMPDEST PUSH1 0x0 DUP2 MLOAD SWAP1 POP PUSH2 0x2BD9 DUP2 PUSH2 0x1B35 JUMP JUMPDEST SWAP3 SWAP2 POP POP JUMP JUMPDEST PUSH1 0x0 PUSH1 0x20 DUP3 DUP5 SUB SLT ISZERO PUSH2 0x2BF5 JUMPI PUSH2 0x2BF4 PUSH2 0x166C JUMP JUMPDEST JUMPDEST PUSH1 0x0 PUSH2 0x2C03 DUP5 DUP3 DUP6 ADD PUSH2 0x2BCA JUMP JUMPDEST SWAP2 POP POP SWAP3 SWAP2 POP POP JUMP JUMPDEST PUSH1 0x0 DUP2 SWAP1 POP SWAP3 SWAP2 POP POP JUMP JUMPDEST PUSH1 0x0 PUSH2 0x2C22 DUP3 PUSH2 0x1EBC JUMP JUMPDEST PUSH2 0x2C2C DUP2 DUP6 PUSH2 0x2C0C JUMP JUMPDEST SWAP4 POP PUSH2 0x2C3C DUP2 DUP6 PUSH1 0x20 DUP7 ADD PUSH2 0x1ED8 JUMP JUMPDEST DUP1 DUP5 ADD SWAP2 POP POP SWAP3 SWAP2 POP POP JUMP JUMPDEST PUSH1 0x0 PUSH2 0x2C54 DUP3 DUP5 PUSH2 0x2C17 JUMP JUMPDEST SWAP2 POP DUP2 SWAP1 POP SWAP3 SWAP2 POP POP JUMP JUMPDEST PUSH1 0x0 PUSH1 0x20 DUP3 DUP5 SUB SLT ISZERO PUSH2 0x2C75 JUMPI PUSH2 0x2C74 PUSH2 0x166C JUMP JUMPDEST JUMPDEST PUSH1 0x0 PUSH2 0x2C83 DUP5 DUP3 DUP6 ADD PUSH2 0x1F8B JUMP JUMPDEST SWAP2 POP POP SWAP3 SWAP2 POP POP JUMP JUMPDEST PUSH32 0x4D73672E73656E646572206973206E6F7420576F726D686F6C652052656C6179 PUSH1 0x0 DUP3 ADD MSTORE PUSH32 0x6572000000000000000000000000000000000000000000000000000000000000 PUSH1 0x20 DUP3 ADD MSTORE POP JUMP JUMPDEST PUSH1 0x0 PUSH2 0x2CE8 PUSH1 0x22 DUP4 PUSH2 0x23C6 JUMP JUMPDEST SWAP2 POP PUSH2 0x2CF3 DUP3 PUSH2 0x2C8C JUMP JUMPDEST PUSH1 0x40 DUP3 ADD SWAP1 POP SWAP2 SWAP1 POP JUMP JUMPDEST PUSH1 0x0 PUSH1 0x20 DUP3 ADD SWAP1 POP DUP2 DUP2 SUB PUSH1 0x0 DUP4 ADD MSTORE PUSH2 0x2D17 DUP2 PUSH2 0x2CDB JUMP JUMPDEST SWAP1 POP SWAP2 SWAP1 POP JUMP JUMPDEST PUSH32 0x4578706563746564203120746F6B656E207472616E7366657273000000000000 PUSH1 0x0 DUP3 ADD MSTORE POP JUMP JUMPDEST PUSH1 0x0 PUSH2 0x2D54 PUSH1 0x1A DUP4 PUSH2 0x23C6 JUMP JUMPDEST SWAP2 POP PUSH2 0x2D5F DUP3 PUSH2 0x2D1E JUMP JUMPDEST PUSH1 0x20 DUP3 ADD SWAP1 POP SWAP2 SWAP1 POP JUMP JUMPDEST PUSH1 0x0 PUSH1 0x20 DUP3 ADD SWAP1 POP DUP2 DUP2 SUB PUSH1 0x0 DUP4 ADD MSTORE PUSH2 0x2D83 DUP2 PUSH2 0x2D47 JUMP JUMPDEST SWAP1 POP SWAP2 SWAP1 POP JUMP JUMPDEST PUSH1 0x0 PUSH2 0x2D95 DUP3 PUSH2 0x1A89 JUMP JUMPDEST SWAP1 POP SWAP2 SWAP1 POP JUMP JUMPDEST PUSH2 0x2DA5 DUP2 PUSH2 0x2D8A JUMP JUMPDEST DUP2 EQ PUSH2 0x2DB0 JUMPI PUSH1 0x0 DUP1 REVERT JUMPDEST POP JUMP JUMPDEST PUSH1 0x0 DUP2 MLOAD SWAP1 POP PUSH2 0x2DC2 DUP2 PUSH2 0x2D9C JUMP JUMPDEST SWAP3 SWAP2 POP POP JUMP JUMPDEST PUSH1 0x0 PUSH1 0x20 DUP3 DUP5 SUB SLT ISZERO PUSH2 0x2DDE JUMPI PUSH2 0x2DDD PUSH2 0x166C JUMP JUMPDEST JUMPDEST PUSH1 0x0 PUSH2 0x2DEC DUP5 DUP3 DUP6 ADD PUSH2 0x2DB3 JUMP JUMPDEST SWAP2 POP POP SWAP3 SWAP2 POP POP JUMP JUMPDEST PUSH1 0x0 PUSH1 0x40 DUP3 ADD SWAP1 POP PUSH2 0x2E0A PUSH1 0x0 DUP4 ADD DUP6 PUSH2 0x2949 JUMP JUMPDEST PUSH2 0x2E17 PUSH1 0x20 DUP4 ADD DUP5 PUSH2 0x1780 JUMP JUMPDEST SWAP4 SWAP3 POP POP POP JUMP JUMPDEST PUSH1 0x0 PUSH1 0x60 DUP3 ADD SWAP1 POP PUSH2 0x2E33 PUSH1 0x0 DUP4 ADD DUP7 PUSH2 0x1D27 JUMP JUMPDEST PUSH2 0x2E40 PUSH1 0x20 DUP4 ADD DUP6 PUSH2 0x1780 JUMP JUMPDEST PUSH2 0x2E4D PUSH1 0x40 DUP4 ADD DUP5 PUSH2 0x1780 JUMP JUMPDEST SWAP5 SWAP4 POP POP POP POP JUMP JUMPDEST PUSH1 0x0 DUP2 MLOAD SWAP1 POP SWAP2 SWAP1 POP JUMP JUMPDEST PUSH1 0x0 DUP3 DUP3 MSTORE PUSH1 0x20 DUP3 ADD SWAP1 POP SWAP3 SWAP2 POP POP JUMP JUMPDEST PUSH1 0x0 DUP2 SWAP1 POP PUSH1 0x20 DUP3 ADD SWAP1 POP SWAP2 SWAP1 POP JUMP JUMPDEST PUSH2 0x2E8A DUP2 PUSH2 0x170F JUMP JUMPDEST DUP3 MSTORE POP POP JUMP JUMPDEST PUSH2 0x2E99 DUP2 PUSH2 0x1676 JUMP JUMPDEST DUP3 MSTORE POP POP JUMP JUMPDEST PUSH2 0x2EA8 DUP2 PUSH2 0x2006 JUMP JUMPDEST DUP3 MSTORE POP POP JUMP JUMPDEST PUSH1 0x60 DUP3 ADD PUSH1 0x0 DUP3 ADD MLOAD PUSH2 0x2EC4 PUSH1 0x0 DUP6 ADD DUP3 PUSH2 0x2E81 JUMP JUMPDEST POP PUSH1 0x20 DUP3 ADD MLOAD PUSH2 0x2ED7 PUSH1 0x20 DUP6 ADD DUP3 PUSH2 0x2E90 JUMP JUMPDEST POP PUSH1 0x40 DUP3 ADD MLOAD PUSH2 0x2EEA PUSH1 0x40 DUP6 ADD DUP3 PUSH2 0x2E9F JUMP JUMPDEST POP POP POP POP JUMP JUMPDEST PUSH1 0x0 PUSH2 0x2EFC DUP4 DUP4 PUSH2 0x2EAE JUMP JUMPDEST PUSH1 0x60 DUP4 ADD SWAP1 POP SWAP3 SWAP2 POP POP JUMP JUMPDEST PUSH1 0x0 PUSH1 0x20 DUP3 ADD SWAP1 POP SWAP2 SWAP1 POP JUMP JUMPDEST PUSH1 0x0 PUSH2 0x2F20 DUP3 PUSH2 0x2E55 JUMP JUMPDEST PUSH2 0x2F2A DUP2 DUP6 PUSH2 0x2E60 JUMP JUMPDEST SWAP4 POP PUSH2 0x2F35 DUP4 PUSH2 0x2E71 JUMP JUMPDEST DUP1 PUSH1 0x0 JUMPDEST DUP4 DUP2 LT ISZERO PUSH2 0x2F66 JUMPI DUP2 MLOAD PUSH2 0x2F4D DUP9 DUP3 PUSH2 0x2EF0 JUMP JUMPDEST SWAP8 POP PUSH2 0x2F58 DUP4 PUSH2 0x2F08 JUMP JUMPDEST SWAP3 POP POP PUSH1 0x1 DUP2 ADD SWAP1 POP PUSH2 0x2F39 JUMP JUMPDEST POP DUP6 SWAP4 POP POP POP POP SWAP3 SWAP2 POP POP JUMP JUMPDEST PUSH1 0x0 PUSH1 0xC0 DUP3 ADD SWAP1 POP PUSH2 0x2F88 PUSH1 0x0 DUP4 ADD DUP10 PUSH2 0x1D27 JUMP JUMPDEST PUSH2 0x2F95 PUSH1 0x20 DUP4 ADD DUP9 PUSH2 0x2949 JUMP JUMPDEST DUP2 DUP2 SUB PUSH1 0x40 DUP4 ADD MSTORE PUSH2 0x2FA7 DUP2 DUP8 PUSH2 0x1F02 JUMP JUMPDEST SWAP1 POP PUSH2 0x2FB6 PUSH1 0x60 DUP4 ADD DUP7 PUSH2 0x1780 JUMP JUMPDEST PUSH2 0x2FC3 PUSH1 0x80 DUP4 ADD DUP6 PUSH2 0x1780 JUMP JUMPDEST DUP2 DUP2 SUB PUSH1 0xA0 DUP4 ADD MSTORE PUSH2 0x2FD5 DUP2 DUP5 PUSH2 0x2F15 JUMP JUMPDEST SWAP1 POP SWAP8 SWAP7 POP POP POP POP POP POP POP JUMP JUMPDEST PUSH1 0x0 PUSH1 0x20 DUP3 DUP5 SUB SLT ISZERO PUSH2 0x2FF8 JUMPI PUSH2 0x2FF7 PUSH2 0x166C JUMP JUMPDEST JUMPDEST PUSH1 0x0 PUSH2 0x3006 DUP5 DUP3 DUP6 ADD PUSH2 0x2031 JUMP JUMPDEST SWAP2 POP POP SWAP3 SWAP2 POP POP JUMP JUMPDEST PUSH1 0x0 PUSH1 0x20 DUP3 ADD SWAP1 POP PUSH2 0x3024 PUSH1 0x0 DUP4 ADD DUP5 PUSH2 0x2B92 JUMP JUMPDEST SWAP3 SWAP2 POP POP JUMP JUMPDEST PUSH1 0x0 PUSH2 0x3045 PUSH2 0x3040 PUSH2 0x303B DUP5 PUSH2 0x1D36 JUMP JUMPDEST PUSH2 0x1AA9 JUMP JUMPDEST PUSH2 0x1FA0 JUMP JUMPDEST SWAP1 POP SWAP2 SWAP1 POP JUMP JUMPDEST PUSH2 0x3055 DUP2 PUSH2 0x302A JUMP JUMPDEST DUP3 MSTORE POP POP JUMP JUMPDEST PUSH1 0x0 PUSH1 0xC0 DUP3 ADD SWAP1 POP PUSH2 0x3070 PUSH1 0x0 DUP4 ADD DUP10 PUSH2 0x2949 JUMP JUMPDEST PUSH2 0x307D PUSH1 0x20 DUP4 ADD DUP9 PUSH2 0x1780 JUMP JUMPDEST PUSH2 0x308A PUSH1 0x40 DUP4 ADD DUP8 PUSH2 0x1D27 JUMP JUMPDEST PUSH2 0x3097 PUSH1 0x60 DUP4 ADD DUP7 PUSH2 0x2B92 JUMP JUMPDEST PUSH2 0x30A4 PUSH1 0x80 DUP4 ADD DUP6 PUSH2 0x304C JUMP JUMPDEST DUP2 DUP2 SUB PUSH1 0xA0 DUP4 ADD MSTORE PUSH2 0x30B6 DUP2 DUP5 PUSH2 0x1F02 JUMP JUMPDEST SWAP1 POP SWAP8 SWAP7 POP POP POP POP POP POP POP JUMP INVALID LOG2 PUSH5 0x6970667358 0x22 SLT KECCAK256 0xCE 0xB6 DUP16 DUP5 SGT DUP2 0xC5 SWAP12 CALLER 0xA6 OR 0xD0 DUP2 SMOD CALLDATASIZE 0x24 SSTORE BALANCE 0x2C INVALID GT CODECOPY PUSH19 0x38D4EABA21CA1C57C864736F6C634300081200 CALLER "
		},
		"gasEstimates": {
			"creation": {
				"codeDepositCost": "2507400",
				"executionCost": "infinite",
				"totalCost": "infinite"
			},
			"external": {
				"quoteCrossChainDeposit(uint16)": "infinite",
				"receiveWormholeMessages(bytes,bytes[],bytes32,uint16,bytes32)": "infinite",
				"seenDeliveryVaaHashes(bytes32)": "2797",
				"sendCrossChainDeposit(uint16,address,address,uint256,address)": "infinite",
				"sendNativeCrossChainDeposit(uint16,address,address,uint256)": "infinite",
				"setRegisteredSender(uint16,bytes32)": "25047",
				"tokenBridge()": "infinite",
				"wormhole()": "infinite",
				"wormholeRelayer()": "infinite"
			},
			"internal": {
				"receivePayloadAndTokens(bytes memory,struct TokenReceiver.TokenReceived memory[] memory,bytes32,uint16,bytes32)": "infinite"
			}
		},
		"methodIdentifiers": {
			"quoteCrossChainDeposit(uint16)": "2b524c97",
			"receiveWormholeMessages(bytes,bytes[],bytes32,uint16,bytes32)": "529dca32",
			"seenDeliveryVaaHashes(bytes32)": "180f6cc2",
			"sendCrossChainDeposit(uint16,address,address,uint256,address)": "8d3ea489",
			"sendNativeCrossChainDeposit(uint16,address,address,uint256)": "c530cbbe",
			"setRegisteredSender(uint16,bytes32)": "dd12d68b",
			"tokenBridge()": "c6328a46",
			"wormhole()": "84acd1bb",
			"wormholeRelayer()": "da25b725"
		}
	},
	"abi": [
		{
			"inputs": [
				{
					"internalType": "address",
					"name": "_wormholeRelayer",
					"type": "address"
				},
				{
					"internalType": "address",
					"name": "_tokenBridge",
					"type": "address"
				},
				{
					"internalType": "address",
					"name": "_wormhole",
					"type": "address"
				}
			],
			"stateMutability": "nonpayable",
			"type": "constructor"
		},
		{
			"inputs": [
				{
					"internalType": "bytes32",
					"name": "",
					"type": "bytes32"
				}
			],
			"name": "NotAnEvmAddress",
			"type": "error"
		},
		{
			"inputs": [
				{
					"internalType": "uint16",
					"name": "targetChain",
					"type": "uint16"
				}
			],
			"name": "quoteCrossChainDeposit",
			"outputs": [
				{
					"internalType": "uint256",
					"name": "cost",
					"type": "uint256"
				}
			],
			"stateMutability": "view",
			"type": "function"
		},
		{
			"inputs": [
				{
					"internalType": "bytes",
					"name": "payload",
					"type": "bytes"
				},
				{
					"internalType": "bytes[]",
					"name": "additionalVaas",
					"type": "bytes[]"
				},
				{
					"internalType": "bytes32",
					"name": "sourceAddress",
					"type": "bytes32"
				},
				{
					"internalType": "uint16",
					"name": "sourceChain",
					"type": "uint16"
				},
				{
					"internalType": "bytes32",
					"name": "deliveryHash",
					"type": "bytes32"
				}
			],
			"name": "receiveWormholeMessages",
			"outputs": [],
			"stateMutability": "payable",
			"type": "function"
		},
		{
			"inputs": [
				{
					"internalType": "bytes32",
					"name": "",
					"type": "bytes32"
				}
			],
			"name": "seenDeliveryVaaHashes",
			"outputs": [
				{
					"internalType": "bool",
					"name": "",
					"type": "bool"
				}
			],
			"stateMutability": "view",
			"type": "function"
		},
		{
			"inputs": [
				{
					"internalType": "uint16",
					"name": "targetChain",
					"type": "uint16"
				},
				{
					"internalType": "address",
					"name": "targetToken",
					"type": "address"
				},
				{
					"internalType": "address",
					"name": "recipient",
					"type": "address"
				},
				{
					"internalType": "uint256",
					"name": "amount",
					"type": "uint256"
				},
				{
					"internalType": "address",
					"name": "token",
					"type": "address"
				}
			],
			"name": "sendCrossChainDeposit",
			"outputs": [],
			"stateMutability": "payable",
			"type": "function"
		},
		{
			"inputs": [
				{
					"internalType": "uint16",
					"name": "targetChain",
					"type": "uint16"
				},
				{
					"internalType": "address",
					"name": "targetToken",
					"type": "address"
				},
				{
					"internalType": "address",
					"name": "recipient",
					"type": "address"
				},
				{
					"internalType": "uint256",
					"name": "amount",
					"type": "uint256"
				}
			],
			"name": "sendNativeCrossChainDeposit",
			"outputs": [],
			"stateMutability": "payable",
			"type": "function"
		},
		{
			"inputs": [
				{
					"internalType": "uint16",
					"name": "sourceChain",
					"type": "uint16"
				},
				{
					"internalType": "bytes32",
					"name": "sourceAddress",
					"type": "bytes32"
				}
			],
			"name": "setRegisteredSender",
			"outputs": [],
			"stateMutability": "nonpayable",
			"type": "function"
		},
		{
			"inputs": [],
			"name": "tokenBridge",
			"outputs": [
				{
					"internalType": "contract ITokenBridge",
					"name": "",
					"type": "address"
				}
			],
			"stateMutability": "view",
			"type": "function"
		},
		{
			"inputs": [],
			"name": "wormhole",
			"outputs": [
				{
					"internalType": "contract IWormhole",
					"name": "",
					"type": "address"
				}
			],
			"stateMutability": "view",
			"type": "function"
		},
		{
			"inputs": [],
			"name": "wormholeRelayer",
			"outputs": [
				{
					"internalType": "contract IWormholeRelayer",
					"name": "",
					"type": "address"
				}
			],
			"stateMutability": "view",
			"type": "function"
		}
	]
}